:100000000C9462000C948A000C948A000C948A0070
:100010000C948A000C948A000C948A000C948A0038
:100020000C948A000C948A000C948A000C948A0028
:100030000C948A000C948A000C948A000C948A0018
:100040000C947D040C948A000C944B040C942504AD
:100050000C948A000C948A000C948A000C948A00F8
:100060000C948A000C948A000000000024002700F1
:100070002A0000000000250028002B0000000000DE
:1000800023002600290004040404040404040202DA
:100090000202020203030303030301020408102007
:1000A0004080010204081020010204081020000012
:1000B0000008000201000003040700000000000027
:1000C0000000C70411241FBECFEFD8E0DEBFCDBFB4
:1000D00011E0A0E0B1E0E4ECF2E102C005900D9285
:1000E000A633B107D9F721E0A6E3B1E001C01D9224
:1000F000A43FB207E1F710E0C2E6D0E004C02197C8
:10010000FE010E945A09C136D107C9F70E941105A4
:100110000C9460090C940000AF92BF92CF92DF92D2
:10012000EF92FF920F931F93CF93DF936C017B01AC
:100130008B01040F151FEB015E01AE18BF08C0173D
:10014000D10759F06991D601ED91FC910190F081B0
:10015000E02DC6010995892B79F7C501DF91CF9173
:100160001F910F91FF90EF90DF90CF90BF90AF90D5
:100170000895FC01538D448D252F30E0842F90E0AD
:10018000821B930B541710F0CF9608950197089592
:10019000FC01918D828D981761F0A28DAE0FBF2F5B
:1001A000B11D5D968C91928D9F5F9F73928F90E0B1
:1001B00008958FEF9FEF0895FC01918D828D981720
:1001C00031F0828DE80FF11D858D90E008958FEF5D
:1001D0009FEF0895FC01918D228D892F90E0805C26
:1001E0009F4F821B91098F73992708958FE391E0A8
:1001F0000E94EA0021E0892B09F420E0822F089573
:1002000080E090E0892B29F00E94F60081110C9487
:1002100000000895FC01A48DA80FB92FB11DA35AA9
:10022000BF4F2C91848D90E001968F739927848F16
:10023000A689B7892C93A089B1898C918370806439
:100240008C93938D848D981306C00288F389E02DDA
:1002500080818F7D80830895EF92FF920F931F938B
:10026000CF93DF93EC0181E0888F9B8D8C8D981369
:100270001AC0E889F989808185FF15C09FB7F89475
:10028000EE89FF896083E889F989808183708064C1
:1002900080839FBF81E090E0DF91CF911F910F910C
:1002A000FF90EF900895F62E0B8D10E00F5F1F4F1B
:1002B0000F731127E02E8C8D8E110CC00FB607FC2A
:1002C000FACFE889F989808185FFF5CFCE010E94B8
:1002D0000A01F1CFEB8DEC0FFD2FF11DE35AFF4F1B
:1002E000F0829FB7F8940B8FEA89FB898081806246
:1002F000CFCFCF93DF93EC01888D8823B9F0AA8903
:10030000BB89E889F9898C9185FD03C0808186FDD0
:100310000DC00FB607FCF7CF8C9185FFF2CF80811F
:1003200085FFEDCFCE010E940A01E9CFDF91CF9189
:100330000895833081F028F4813099F08230A9F05B
:1003400008958730A9F08830C9F08430B1F48091E5
:1003500080008F7D03C0809180008F778093800024
:10036000089584B58F7784BD089584B58F7DFBCFC4
:100370008091B0008F778093B00008958091B00095
:100380008F7DF9CFCF93DF93282F30E0F901E2552D
:10039000FF4F8491F901E656FF4FD491F901EA57D6
:1003A000FF4FC491CC23A1F081110E949901EC2F41
:1003B000F0E0EE0FFF1FE458FF4FA591B491EC91D0
:1003C000ED2381E090E009F480E0DF91CF91089582
:1003D00080E090E0FACF1F93CF93DF93282F30E097
:1003E000F901E255FF4F8491F901E656FF4FD49190
:1003F000F901EA57FF4FC491CC23A9F0162F8111C0
:100400000E949901EC2FF0E0EE0FFF1FEE58FF4F16
:10041000A591B4918FB7F894EC91111108C0D095C3
:10042000DE23DC938FBFDF91CF911F910895DE2BE8
:10043000F8CFCF93DF9390E0FC01E656FF4F249175
:100440008A579F4FFC0184918823D1F090E0880F58
:10045000991FFC01E859FF4FA591B491FC01EE589A
:10046000FF4FC591D49161110EC09FB7F8948C9144
:10047000E22FE0958E238C932881E223E8839FBFAF
:10048000DF91CF9108958FB7F894EC91E22BEC9324
:100490008FBFF6CF3FB7F89480913B0190913C011C
:1004A000A0913D01B0913E0126B5A89B05C02F3F0C
:1004B00019F00196A11DB11D3FBFBA2FA92F982F8A
:1004C0008827BC01CD01620F711D811D911D42E085
:1004D000660F771F881F991F4A95D1F708950895D1
:1004E00090E080E00895CF93DF93EC0160E08E818F
:1004F0000E94EB0161E08E810E94EB0160E08E8141
:100500000E94EB018BE891E00197F1F7DF91CF9129
:100510000895CF92DF92EF92FF920F931F93CF93A4
:10052000DF936C017C0187E0E80EF11CD0E0C0E0B5
:10053000062F10E0B8010C2E02C0759567950A943D
:10054000E2F76170F70181917F010E94EB01219632
:10055000C430D10579F7C601DF91CF911F910F917A
:10056000FF90EF90DF90CF900C947302CF92DF92C8
:10057000EF92FF920F931F93CF93DF93EC01F62E30
:10058000642F8C810E94EB018D818F3F19F060E018
:100590000E94EB010F2D10E08F8584FF25C06E01B6
:1005A00087E0C80ED11CF12CE12CB8010E2C02C042
:1005B000759567950A94E2F76170F60181916F0174
:1005C0000E94EB01FFEFEF1AFF0A88E0E816F10442
:1005D00061F7CE01DF91CF911F910F91FF90EF90C6
:1005E000DF90CF900C947302B80184E07595679505
:1005F0008A95E1F7CE010E9489026F2DCE01DF912D
:10060000CF911F910F91FF90EF90DF90CF900C94BE
:100610008902CF93DF93823029F49091EB019860A7
:100620009093EB018093EF011092F00180E48093AE
:10063000F10180E18093F20180E58093F30161E0B4
:100640008091E0010E9419028091E1018F3F19F031
:1006500061E00E94190261E08091E2010E941902AA
:10066000CCEDD1E09E012C5D31408091EB0184FD09
:100670000BC084E090E021962817390744F461E02C
:100680008E810E941902EECF88E090E0F4CF8BE3D8
:100690009DE00197F1F760E08091E0010E94EB019D
:1006A00060E08091E2010E94EB018091E1018F3FC7
:1006B00019F060E00E94EB016091EB0164FD45C020
:1006C00063E08CED91E00E948902CBE4D6E4CE0198
:1006D0000197F1F763E08CED91E00E948902219788
:1006E000F1F763E08CED91E00E94890283E592E0EE
:1006F0000197F1F762E08CED91E00E948902609130
:10070000EB01606240E08CED91E00E94B60284E073
:100710008093EC0140E06CE08CED91E00E94B60229
:1007200040E061E08CED91E00E94B6028BE39FE136
:100730000197F1F782E08093ED0140E066E08CEDF7
:1007400091E0DF91CF910C94B602606240E08CEDB5
:1007500091E00E94B6028BE496E40197F1F7609174
:10076000EB01606240E08CED91E00E94B60283E50F
:1007700092E00197F1F76091EB01606240E08CED4F
:1007800091E00E94B602BBCF41E00E94B60281E038
:1007900090E00895FB0101900020E9F73197AF0147
:1007A000461B570BDC01ED91FC910280F381E02D9B
:1007B00009948F929F92AF92BF92EF92FF920F9304
:1007C0001F93CF93DF93CDB7DEB7A1970FB6F89401
:1007D000DEBF0FBECDBF7C01FA01CB0119A22230D2
:1007E00008F42AE08E010F5D1F4F822E912CB12C50
:1007F000A12CBF01A50194010E943809F901CA0189
:100800006A300CF5605DD8016E938D01232B242B8B
:10081000252B79F790E080E0109721F0BD01C7010A
:100820000E94CA03A1960FB6F894DEBF0FBECDBFDB
:10083000DF91CF911F910F91FF90EF90BF90AF90FC
:100840009F908F900895695CDECF1F920F920FB634
:100850000F9211242F933F934F935F936F937F9346
:100860008F939F93AF93BF93EF93FF938FE391E0A9
:100870000E940A01FF91EF91BF91AF919F918F91DB
:100880007F916F915F914F913F912F910F900FBE8C
:100890000F901F9018951F920F920FB60F92112470
:1008A0002F938F939F93EF93FF93E0914F01F091DC
:1008B00050018081E0915501F091560182FD1BC0ED
:1008C0009081809158018F5F8F7320915901821719
:1008D00041F0E0915801F0E0E15CFE4F958F80938C
:1008E0005801FF91EF919F918F912F910F900FBE23
:1008F0000F901F9018958081F4CF1F920F920FB622
:100900000F9211242F933F938F939F93AF93BF9395
:100910008091370190913801A0913901B0913A014D
:100920003091360123E0230F2D3758F50196A11D94
:10093000B11D209336018093370190933801A09325
:100940003901B0933A0180913B0190913C01A09113
:100950003D01B0913E010196A11DB11D80933B0167
:1009600090933C01A0933D01B0933E01BF91AF91A4
:100970009F918F913F912F910F900FBE0F901F90DD
:10098000189526E8230F0296A11DB11DD2CFEFE3E3
:10099000F1E01382128288EE93E0A0E0B0E084835D
:1009A0009583A683B78388E091E09183808385EC6B
:1009B00090E09587848784EC90E09787868780EC29
:1009C00090E0918B808B81EC90E0938B828B82EC1A
:1009D00090E0958B848B86EC90E0978B868B118EC4
:1009E000128E138E148EECEDF1E0138212828AE1E6
:1009F00091E0918380838CE084838FEF85838BE00B
:100A0000868384E0878385E0808786E0818787E02E
:100A100082871386148615861686178681E00C94C5
:100A20000903789484B5826084BD84B5816084BDF7
:100A300085B5826085BD85B5816085BD80916E007C
:100A4000816080936E0010928100809181008260AD
:100A500080938100809181008160809381008091EA
:100A600080008160809380008091B10084608093D9
:100A7000B1008091B00081608093B00080917A00D5
:100A8000846080937A0080917A00826080937A00FB
:100A900080917A00816080937A0080917A008068EA
:100AA00080937A001092C10060E082E00E941902F7
:100AB00060E083E00E94190261E089E00E9419026F
:100AC00082E00E940903E0914F01F091500182E021
:100AD0008083E0914B01F0914C011082E0914D0137
:100AE000F0914E018FEC808310925701E0915301F9
:100AF000F091540186E08083E0915101F091520120
:100B0000808180618083E0915101F0915201808168
:100B100088608083E0915101F0915201808180686A
:100B20008083E0915101F091520180818F7D80831B
:100B300027EBA22E20E0B22ECBE3DFE100E010E0B5
:100B400082E00E94C201C0900001D0900101E090BB
:100B50000201F0900301019709F0D7C02AE037EDB8
:100B600043E25CE3C701B6010E946807609300019D
:100B7000709301018093020190930301C0900001E2
:100B8000D0900101E0900201F090030120E030E0FC
:100B9000A901C701B6010E94D40787FDC5C020E0A6
:100BA00030E040E85FE3C701B6010E94C1081816B3
:100BB0000CF4BEC020E030E04FE753E4C701B601BB
:100BC0000E94C6080E94D9072B017B0161E089E0E1
:100BD0000E9419024114510409F0B1C060E089E09B
:100BE0000E94EB0140E061E08CED91E00E94B602D2
:100BF000CE010197F1F762E271E08CED91E00E9485
:100C0000CA03C0900001D0900101E0900201F09071
:100C10000301A7019601C701B6010E94330966E2EC
:100C200071E081111BC026013701E89477F82FEF9E
:100C30003FEF4FE75FE7C301B2010E943309811123
:100C4000C6C02FEF3FEF4FE75FE7C301B2010E943D
:100C5000D40718160CF0BBC06AE271E08CED91E08D
:100C60000E94CA0382E00E94C2016C01990FEE0843
:100C7000FF082AE0B701A601F7FE0DC06DE28FE381
:100C800091E00E942C0144275527BA014C195D09B7
:100C90006E097F092AE08FE391E00E94D90362E3A5
:100CA00071E08FE391E00E94CA030E944A022B0187
:100CB0003C018AEFC82ED12CE12CF12C0E944A0273
:100CC0006419750986099709683E73408105910585
:100CD000A8F321E0C21AD108E108F10888EE480E15
:100CE00083E0581E611C711CC114D104E104F1049D
:100CF00029F70115110509F423CF0E94F600882376
:100D000009F41ECF0E9400001BCF83E00E94C201A5
:100D1000019709F033CF2AE037ED43E25CE3C701E6
:100D2000B6010E94670722CFC12CD12C760142CF99
:100D3000C12CD12C90E8E92E9FE3F92E3BCF2FEF69
:100D40004216510411F461E04ACFF50184918330D9
:100D500021F148F48130B9F08230D1F0F0E8EF169B
:100D6000F1048CF73BCF873011F1883041F18430AA
:100D7000A9F78091800080628093800050928B0060
:100D800040928A002FCF84B5806884BD47BC2ACFAB
:100D900084B5806284BD48BC25CF80918000806886
:100DA0008093800050928900409288001BCF8091F0
:100DB000B00080688093B0004092B30013CF809160
:100DC000B00080628093B0004092B4000BCF2FEF50
:100DD0003FEF4FE75FE4C701B6010E94C108181654
:100DE0001CF46EE271E03ACF2FEF3FEF4FE75FEC7C
:100DF000C701B6010E94D40787FDF3CF20E030E0A1
:100E0000A901C701B6010E94D40787FF0AC041E0CB
:100E10006DE28CED91E00E94B602F7FAF094F7F8DB
:100E2000F0942AE037ED43EA5BE3C701B6010E9484
:100E300068072B013C010E94E0076B017C010E94C6
:100E40000F089B01AC01C301B2010E9467072B018F
:100E50003C012AE0B701A6018CED91E00E94D90384
:100E600041E06EE28CED91E00E94B60220E030E0BD
:100E700040E251E4C301B2010E94C6082B013C01CB
:100E80000E94E0076B01F12CE12C2AE0B701A601DA
:100E90008CED91E00E94D903C701B6010E940F08B2
:100EA0009B01AC01C301B2010E94670720E030E062
:100EB00040E251E40E94C6080E94E007AB0170E0E6
:100EC00060E02AE08CED91E00E94D903CBCE50582F
:100ED000BB27AA270E947F070C9487080E947908E5
:100EE00038F00E94800820F039F49F3F19F426F46E
:100EF0000C9476080EF4E095E7FB0C947008E92F4B
:100F00000E94980858F3BA17620773078407950779
:100F100020F079F4A6F50C94BA080EF4E0950B2EA7
:100F2000BA2FA02D0B01B90190010C01CA01A0013B
:100F30001124FF27591B99F0593F50F4503E68F196
:100F40001A16F040A22F232F342F4427585FF3CFD7
:100F5000469537952795A795F0405395C9F77EF4A8
:100F60001F16BA0B620B730B840BBAF09150A1F0F1
:100F7000FF0FBB1F661F771F881FC2F70EC0BA0F77
:100F8000621F731F841F48F4879577956795B795FF
:100F9000F7959E3F08F0B0CF9395880F08F09927FA
:100FA000EE0F9795879508950E944C0808F481E00C
:100FB00008950E94E0076894B1110C94BB0808954D
:100FC0000E94A00888F09F5798F0B92F9927B75131
:100FD000B0F0E1F0660F771F881F991F1AF0BA95DD
:100FE000C9F714C0B13091F00E94BA08B1E0089579
:100FF0000C94BA08672F782F8827B85F39F0B93F6B
:10100000CCF3869577956795B395D9F73EF490958F
:101010008095709561957F4F8F4F9F4F0895E8940D
:1010200009C097FB3EF490958095709561957F4F30
:101030008F4F9F4F9923A9F0F92F96E9BB279395DE
:10104000F695879577956795B795F111F8CFFAF4EE
:10105000BB0F11F460FF1BC06F5F7F4F8F4F9F4F1F
:1010600016C0882311F096E911C0772321F09EE87D
:10107000872F762F05C0662371F096E8862F70E0E3
:1010800060E02AF09A95660F771F881FDAF7880FBD
:101090009695879597F90895990F0008550FAA0B13
:1010A000E0E8FEEF16161706E807F907C0F012167B
:1010B0001306E407F50798F0621B730B840B950B7E
:1010C00039F40A2661F0232B242B252B21F40895D3
:1010D0000A2609F4A140A6958FEF811D811D089570
:1010E00097F99F6780E870E060E008959FEF80ECDB
:1010F000089500240A94161617061806090608957E
:1011000000240A9412161306140605060895092EE3
:101110000394000C11F4882352F0BB0F40F4BF2B52
:1011200011F460FF04C06F5F7F4F8F4F9F4F089592
:1011300057FD9058440F551F59F05F3F71F0479588
:10114000880F97FB991F61F09F3F79F0879508956D
:10115000121613061406551FF2CF4695F1DF08C08C
:10116000161617061806991FF1CF869571056105A9
:1011700008940895E894BB2766277727CB0197F951
:1011800008950E944C0808F48FEF08950E94D90832
:101190000C9487080E94790838F00E94800820F09B
:1011A000952311F00C9470080C94760811240C947B
:1011B000BB080E94980870F3959FC1F3950F50E00B
:1011C000551F629FF001729FBB27F00DB11D639FF9
:1011D000AA27F00DB11DAA1F649F6627B00DA11D9F
:1011E000661F829F2227B00DA11D621F739FB00D45
:1011F000A11D621F839FA00D611D221F749F3327B5
:10120000A00D611D231F849F600D211D822F762F4D
:101210006A2F11249F5750409AF0F1F088234AF02A
:10122000EE0FFF1FBB1F661F771F881F9150504096
:10123000A9F79E3F510580F00C9470080C94BB08F0
:101240005F3FE4F3983ED4F3869577956795B7951D
:10125000F795E7959F5FC1F7FE2B880F911D969537
:10126000879597F908950E944C08880B990B08956B
:10127000A1E21A2EAA1BBB1BFD010DC0AA1FBB1F9A
:10128000EE1FFF1FA217B307E407F50720F0A21B0C
:10129000B30BE40BF50B661F771F881F991F1A9479
:1012A00069F760957095809590959B01AC01BD01A3
:1012B000CF010895EE0FFF1F0590F491E02D0994E2
:0412C000F894FFCFD0
:1012C4006666663F000000002C018C00B9007901BD
:1012D400EA00C800DC0000000000C4038C007002B7
:1012E4006F02583A20006E616E00696E66006F7678
:0612F40066000D0A000077
:00000001FF
