:100000000C9462000C948A000C948A000C948A0070
:100010000C948A000C948A000C948A000C948A0038
:100020000C948A000C948A000C948A000C948A0028
:100030000C948A000C948A000C948A000C948A0018
:100040000C94A1040C948A000C946F040C94490441
:100050000C948A000C948A000C948A000C948A00F8
:100060000C948A000C948A000000000024002700F1
:100070002A0000000000250028002B0000000000DE
:1000800023002600290004040404040404040202DA
:100090000202020203030303030301020408102007
:1000A0004080010204081020010204081020000012
:1000B0000008000201000003040700000000000027
:1000C0000000EB0411241FBECFEFD8E0DEBFCDBF90
:1000D00011E0A0E0B1E0EAECF2E102C005900D927F
:1000E000A234B107D9F722E0A2E4B1E001C01D9229
:1000F000A430B207E1F710E0C2E6D0E004C02197D7
:10010000FE010E945D09C136D107C9F70E9435057D
:100110000C9463090C940000AF92BF92CF92DF92CF
:10012000EF92FF920F931F93CF93DF936C017B01AC
:100130008B01040F151FEB015E01AE18BF08C0173D
:10014000D10759F06991D601ED91FC910190F081B0
:10015000E02DC6010995892B79F7C501DF91CF9173
:100160001F910F91FF90EF90DF90CF90BF90AF90D5
:100170000895FC01538D448D252F30E0842F90E0AD
:10018000821B930B541710F0CF9608950197089592
:10019000FC01918D828D981761F0A28DAE0FBF2F5B
:1001A000B11D5D968C91928D9F5F9F73928F90E0B1
:1001B00008958FEF9FEF0895FC01918D828D981720
:1001C00031F0828DE80FF11D858D90E008958FEF5D
:1001D0009FEF0895FC01918D228D892F90E0805C26
:1001E0009F4F821B91098F73992708958FE491E0A7
:1001F0000E94EA0021E0892B09F420E0822F089573
:1002000080E090E0892B29F00E94F60081110C9487
:1002100000000895FC01A48DA80FB92FB11DA35AA9
:10022000BF4F2C91848D90E001968F739927848F16
:10023000A689B7892C93A089B1898C918370806439
:100240008C93938D848D981306C00288F389E02DDA
:1002500080818F7D80830895EF92FF920F931F938B
:10026000CF93DF93EC0181E0888F9B8D8C8D981369
:100270001AC0E889F989808185FF15C09FB7F89475
:10028000EE89FF896083E889F989808183708064C1
:1002900080839FBF81E090E0DF91CF911F910F910C
:1002A000FF90EF900895F62E0B8D10E00F5F1F4F1B
:1002B0000F731127E02E8C8D8E110CC00FB607FC2A
:1002C000FACFE889F989808185FFF5CFCE010E94B8
:1002D0000A01F1CFEB8DEC0FFD2FF11DE35AFF4F1B
:1002E000F0829FB7F8940B8FEA89FB898081806246
:1002F000CFCFCF93DF93EC01888D8823B9F0AA8903
:10030000BB89E889F9898C9185FD03C0808186FDD0
:100310000DC00FB607FCF7CF8C9185FFF2CF80811F
:1003200085FFEDCFCE010E940A01E9CFDF91CF9189
:100330000895833081F028F4813099F08230A9F05B
:1003400008958730A9F08830C9F08430B1F48091E5
:1003500080008F7D03C0809180008F778093800024
:10036000089584B58F7784BD089584B58F7DFBCFC4
:100370008091B0008F778093B00008958091B00095
:100380008F7DF9CFCF93DF93282F30E0F901E2552D
:10039000FF4F8491F901E656FF4FD491F901EA57D6
:1003A000FF4FC491CC23A1F081110E949901EC2F41
:1003B000F0E0EE0FFF1FE458FF4FA591B491EC91D0
:1003C000ED2381E090E009F480E0DF91CF91089582
:1003D00080E090E0FACF1F93CF93DF93282F30E097
:1003E000F901E255FF4F8491F901E656FF4FD49190
:1003F000F901EA57FF4FC491CC23A9F0162F8111C0
:100400000E949901EC2FF0E0EE0FFF1FEE58FF4F16
:10041000A591B4918FB7F894EC91111108C0D095C3
:10042000DE23DC938FBFDF91CF911F910895DE2BE8
:10043000F8CFCF93DF9390E0FC01E656FF4F249175
:100440008A579F4FFC0184918823D1F090E0880F58
:10045000991FFC01E859FF4FA591B491FC01EE589A
:10046000FF4FC591D49161110EC09FB7F8948C9144
:10047000E22FE0958E238C932881E223E8839FBFAF
:10048000DF91CF9108958FB7F894EC91E22BEC9324
:100490008FBFF6CF3FB7F894809147019091480104
:1004A000A0914901B0914A0126B5A89B05C02F3FF4
:1004B00019F00196A11DB11D3FBFBA2FA92F982F8A
:1004C0008827BC01CD01620F711D811D911D42E085
:1004D000660F771F881F991F4A95D1F708950895D1
:1004E00090E080E00895CF93DF93EC0160E08E818F
:1004F0000E94EB0161E08E810E94EB0160E08E8141
:100500000E94EB018BE891E00197F1F7DF91CF9129
:100510000895CF92DF92EF92FF920F931F93CF93A4
:10052000DF936C017C0187E0E80EF11CD0E0C0E0B5
:10053000062F10E0B8010C2E02C0759567950A943D
:10054000E2F76170F70181917F010E94EB01219632
:10055000C430D10579F7C601DF91CF911F910F917A
:10056000FF90EF90DF90CF900C947302CF92DF92C8
:10057000EF92FF920F931F93CF93DF93EC01F62E30
:10058000642F8C810E94EB018D818F3F19F060E018
:100590000E94EB010F2D10E08F8584FF25C06E01B6
:1005A00087E0C80ED11CF12CE12CB8010E2C02C042
:1005B000759567950A94E2F76170F60181916F0174
:1005C0000E94EB01FFEFEF1AFF0A88E0E816F10442
:1005D00061F7CE01DF91CF911F910F91FF90EF90C6
:1005E000DF90CF900C947302B80184E07595679505
:1005F0008A95E1F7CE010E9489026F2DCE01DF912D
:10060000CF911F910F91FF90EF90DF90CF900C94BE
:10061000890240E0682F8CEE91E00C94B602CF93F3
:10062000DF93823029F49091FB0198609093FB0155
:100630008093FF011092000280E48093010280E128
:100640008093020280E58093030261E08091F001D3
:100650000E9419028091F1018F3F19F061E00E9420
:10066000190261E08091F2010E941902CCEED1E002
:100670009E012C5E31408091FB0184FD0BC084E023
:1006800090E021962817390744F461E08E810E949A
:100690001902EECF88E090E0F4CF8BE39DE0019764
:1006A000F1F760E08091F0010E94EB0160E0809141
:1006B000F2010E94EB018091F1018F3F19F060E09F
:1006C0000E94EB018091FB0184FD39C063E08CEE58
:1006D00091E00E948902CBE4D6E4CE010197F1F7C4
:1006E00063E08CEE91E00E9489022197F1F763E0CC
:1006F0008CEE91E00E94890283E592E00197F1F788
:1007000062E08CEE91E00E9489028091FB018062A0
:100710000E94090384E08093FC018CE00E9409039D
:1007200081E00E9409038BE39FE10197F1F782E0EA
:100730008093FD0186E0DF91CF910C9409038062E4
:100740000E9409038BE496E40197F1F78091FB0185
:1007500080620E94090383E592E00197F1F780919E
:10076000FB0180620E940903D0CF41E00E94B602E3
:1007700081E090E00895FB0101900020E9F73197B6
:10078000AF01461B570BDC01ED91FC910280F38118
:10079000E02D09948F929F92AF92BF92EF92FF92B9
:1007A0000F931F93CF93DF93CDB7DEB7A1970FB60B
:1007B000F894DEBF0FBECDBF7C01FA01CB0119A2B8
:1007C000223008F42AE08E010F5D1F4F822E912CFB
:1007D000B12CA12CBF01A50194010E943B09F90194
:1007E000CA016A300CF5605DD8016E938D01232B30
:1007F000242B252B79F790E080E0109721F0BD01A4
:10080000C7010E94BB03A1960FB6F894DEBF0FBECE
:10081000CDBFDF91CF911F910F91FF90EF90BF90CF
:10082000AF909F908F900895695CDECFCF92DF925A
:10083000EF92FF920F931F93CF93DF93EC016A0126
:100840007B01E881F9810190F081E02D6DE209954D
:100850008C0144275527BA014C195D096E097F099F
:100860002AE0CE010E94CA03800F911FDF91CF9131
:100870001F910F91FF90EF90DF90CF900895AB0103
:10088000770F660B770B77FD0C9416042AE00C9417
:10089000CA031F920F920FB60F9211242F933F930A
:1008A0004F935F936F937F938F939F93AF93BF9378
:1008B000EF93FF938FE491E00E940A01FF91EF9183
:1008C000BF91AF919F918F917F916F915F914F9168
:1008D0003F912F910F900FBE0F901F9018951F9270
:1008E0000F920FB60F9211242F938F939F93EF9334
:1008F000FF93E0915F01F09160018081E0916501DB
:10090000F091660182FD1BC09081809168018F5F2C
:100910008F7320916901821741F0E0916801F0E046
:10092000E15BFE4F958F80936801FF91EF919F915E
:100930008F912F910F900FBE0F901F90189580816F
:10094000F4CF1F920F920FB60F9211242F933F9363
:100950008F939F93AF93BF938091430190914401F4
:10096000A0914501B09146013091420123E0230F4F
:100970002D3758F50196A11DB11D2093420180939A
:10098000430190934401A0934501B09346018091A7
:10099000470190914801A0914901B0914A01019607
:1009A000A11DB11D8093470190934801A093490177
:1009B000B0934A01BF91AF919F918F913F912F9139
:1009C0000F900FBE0F901F90189526E8230F0296E8
:1009D000A11DB11DD2CFEFE4F1E01382128288EEA7
:1009E00093E0A0E0B0E084839583A683B78388E09A
:1009F00091E09183808385EC90E09587848784ECF7
:100A000090E09787868780EC90E0918B808B81ECDB
:100A100090E0938B828B82EC90E0958B848B86ECBC
:100A200090E0978B868B118E128E138E148EECEEC7
:100A3000F1E0138212828AE191E0918380838CE05D
:100A400084838FEF85838BE0868384E0878385E0D2
:100A5000808786E0818787E08287138614861586E3
:100A60001686178681E00C940F03789484B5826013
:100A700084BD84B5816084BD85B5826085BD85B542
:100A8000816085BD80916E00816080936E001092C0
:100A9000810080918100826080938100809181003B
:100AA00081608093810080918000816080938000CC
:100AB0008091B10084608093B1008091B00081602A
:100AC0008093B00080917A00846080937A00809156
:100AD0007A00826080937A0080917A0081608093AE
:100AE0007A0080917A00806880937A001092C10029
:100AF00060E082E00E94190260E083E00E94190237
:100B000061E089E00E94190261E08AE00E94190216
:100B100082E00E940F03E0915F01F091600182E0AA
:100B20008083E0915B01F0915C011082E0915D01B6
:100B3000F0915E018FEC808310926701E091630178
:100B4000F091640186E08083E0916101F09162019F
:100B5000808180618083E0916101F09162018081F8
:100B600088608083E0916101F091620180818068FA
:100B70008083E0916101F091620180818F7D8083AB
:100B80000BE31FE190E0E92E90E0F92EC1E0D0E008
:100B900082E00E94C2018090000190900101A0902B
:100BA0000201B0900301019709F0E0C02AE037ED9F
:100BB00043E25CE3C501B4010E9472076093000147
:100BC00070930101809302019093030180900001D2
:100BD00090900101A0900201B09003012AE037ED4E
:100BE00043EA5CE3C501B4010E94DE0787FFCDC084
:100BF00061E089E00E94EB01D0934E01C0934D016A
:100C000081E00E940903C8010197F1F7E1E08091BA
:100C1000FF018111E0E0E195F0E0E451FE4F8489AD
:100C200080680E94090362E271E08CEE91E00E940C
:100C3000BB038090000190900101A0900201B09050
:100C40000301A5019401C501B4010E94360966E2C1
:100C500071E081111BC024013501E89477F82FEF72
:100C60003FEF4FE75FE7C301B2010E9436098111F0
:100C7000B0C02FEF3FEF4FE75FE7C301B2010E9423
:100C8000DE0718160CF0A5C06AE271E08CEE91E068
:100C90000E94BB03E091FF01E23008F01AC1E1506D
:100CA000F0E0E451FE4F848980680E94090362E30A
:100CB00071E08CEE91E00E94BB0360914D01709158
:100CC0004E018CEE91E00E943F0467E371E08CEEF0
:100CD00091E00E94BB0360914B0170914C018CEE3E
:100CE00091E00E943F0489E00E94C201AC01990F8B
:100CF000660B770B77FFEFC08FE491E00E9416043C
:100D00006EE371E08FE491E00E94BB030E944A020F
:100D10002B013C018AEF882E912CA12CB12C0E9432
:100D20004A026419750986099709683E734081056E
:100D30009105A8F321E0821A9108A108B10888EE74
:100D4000480E83E0581E611C711C81149104A1049B
:100D5000B10429F7E114F10409F41ACF0E94F60056
:100D6000882309F415CF0E94000012CF83E00E946F
:100D7000C201019709F02ACF2AE037ED43E25CE394
:100D8000C501B4010E94710719CF28E431EE4AE78A
:100D90005FE3C501B4010E94C40818164CF461E079
:100DA0008AE00E94EB01D0934C01C0934B0128CF05
:100DB00060E08AE00E94EB0160E089E00E94EB01C4
:100DC00010924E0110924D0110924C0110924B0165
:100DD00017CF2FEF3FEF4FE75FE4C501B4010E944B
:100DE000C40818161CF46EE271E050CF2FEF3FEFED
:100DF0004FE75FECC501B4010E94DE0787FDF3CF2A
:100E000020E030E0A901C501B4010E94DE0787FFA0
:100E10000AC041E06DE28CEE91E00E94B602B7FAA2
:100E2000B094B7F8B0942AE037ED43EA5BE3C5012C
:100E3000B4010E9472072B013C010E94E3074B01A1
:100E40005C010E9412089B01AC01C301B2010E9427
:100E500071072B013C012AE0B501A4018CEE91E061
:100E60000E94CA0341E06EE28CEE91E00E94B6025D
:100E700020E030E040E251E4C301B2010E94C90821
:100E80002B013C010E94E3074B01B12CA12C2AE06D
:100E9000B501A4018CEE91E00E94CA03C501B40122
:100EA0000E9412089B01AC01C301B2010E947107AC
:100EB00020E030E040E251E40E94C9080E94E307CC
:100EC000AB0170E060E02AE08CEE91E00E94CA0382
:100ED000E1CEE1E0E5CE2AE08FE491E00E94CA0392
:100EE0000FCF5058BB27AA270E9489070C948A0865
:100EF0000E947C0838F00E94830820F039F49F3F5C
:100F000019F426F40C9479080EF4E095E7FB0C94A0
:100F10007308E92F0E949B0858F3BA1762077307FA
:100F20008407950720F079F4A6F50C94BD080EF41B
:100F3000E0950B2EBA2FA02D0B01B90190010C01E9
:100F4000CA01A0011124FF27591B99F0593F50F401
:100F5000503E68F11A16F040A22F232F342F442759
:100F6000585FF3CF469537952795A795F040539551
:100F7000C9F77EF41F16BA0B620B730B840BBAF021
:100F80009150A1F0FF0FBB1F661F771F881FC2F78C
:100F90000EC0BA0F621F731F841F48F487957795A0
:100FA0006795B795F7959E3F08F0B0CF9395880F5A
:100FB00008F09927EE0F9795879508950E944F089E
:100FC00008F481E008950E94A30888F09F5798F0E4
:100FD000B92F9927B751B0F0E1F0660F771F881F3E
:100FE000991F1AF0BA95C9F714C0B13091F00E9458
:100FF000BD08B1E008950C94BD08672F782F8827AD
:10100000B85F39F0B93FCCF3869577956795B3957E
:10101000D9F73EF490958095709561957F4F8F4FED
:101020009F4F0895E89409C097FB3EF490958095F2
:10103000709561957F4F8F4F9F4F9923A9F0F92F9E
:1010400096E9BB279395F695879577956795B7951C
:10105000F111F8CFFAF4BB0F11F460FF1BC06F5F02
:101060007F4F8F4F9F4F16C0882311F096E911C014
:10107000772321F09EE8872F762F05C0662371F035
:1010800096E8862F70E060E02AF09A95660F771F49
:10109000881FDAF7880F9695879597F90895990F25
:1010A0000008550FAA0BE0E8FEEF16161706E80732
:1010B000F907C0F012161306E407F50798F0621B53
:1010C000730B840B950B39F40A2661F0232B242B28
:1010D000252B21F408950A2609F4A140A6958FEF47
:1010E000811D811D089597F99F6780E870E060E099
:1010F00008959FEF80EC089500240A9416161706B1
:1011000018060906089500240A94121613061406F8
:1011100005060895092E0394000C11F4882352F05B
:10112000BB0F40F4BF2B11F460FF04C06F5F7F4F13
:101130008F4F9F4F089557FD9058440F551F59F0FA
:101140005F3F71F04795880F97FB991F61F09F3FB4
:1011500079F087950895121613061406551FF2CFDD
:101160004695F1DF08C0161617061806991FF1CF2D
:1011700086957105610508940895E894BB27662754
:101180007727CB0197F908950E944F0808F48FEF55
:1011900008950E94DC080C948A080E947C0838F0AC
:1011A0000E94830820F0952311F00C9473080C948E
:1011B000790811240C94BE080E949B0870F3959F37
:1011C000C1F3950F50E0551F629FF001729FBB273E
:1011D000F00DB11D639FAA27F00DB11DAA1F649FDA
:1011E0006627B00DA11D661F829F2227B00DA11D8D
:1011F000621F739FB00DA11D621F839FA00D611D13
:10120000221F749F3327A00D611D231F849F600D33
:10121000211D822F762F6A2F11249F5750409AF05C
:10122000F1F088234AF0EE0FFF1FBB1F661F771FE8
:10123000881F91505040A9F79E3F510580F00C94B3
:1012400073080C94BE085F3FE4F3983ED4F3869590
:1012500077956795B795F795E7959F5FC1F7FE2B53
:10126000880F911D9695879597F908950E944F08CC
:10127000880B990B0895A1E21A2EAA1BBB1BFD0136
:101280000DC0AA1FBB1FEE1FFF1FA217B307E40765
:10129000F50720F0A21BB30BE40BF50B661F771FBD
:1012A000881F991F1A9469F760957095809590959D
:1012B0009B01AC01BD01CF010895EE0FFF1F05900A
:0A12C000F491E02D0994F894FFCF9B
:1012CA006666663F000000002C018C00B9007901B7
:1012DA00EA00C800DC0000000000B5038C007002C0
:1012EA006F025A3A20006E616E00696E66006F7670
:1012FA0066005A623A20003B205A613A20000D0AE1
:02130A000000E1
:00000001FF
