:100000000C945D000C9485000C9485000C94850084
:100010000C9485000C9485000C9485000C9485004C
:100020000C9485000C9485000C9485000C9485003C
:100030000C9485000C9485000C9485000C9485002C
:100040000C94DF020C9485000C94AD020C94870292
:100050000C9485000C9485000C9485000C9485000C
:100060000C9485000C94850000000008000201003B
:100070000003040700000000000000000000000072
:10008000250028002B0000000000240027002A0083
:10009000040404040404040402020202020203032E
:1000A0000303030301020408102040800102040836
:1000B0001020010204081020250511241FBECFEFD7
:1000C000D8E0DEBFCDBF11E0A0E0B1E0E0E7FFE0A7
:1000D00002C005900D92A232B107D9F721E0A2E249
:1000E000B1E001C01D92A03DB207E1F710E0CDE5FF
:1000F000D0E004C02197FE010E94B007CC35D107A3
:10010000C9F70E9429030C94B6070C94000090E0F4
:10011000FC01EC55FF4F249180579F4FFC018491C7
:10012000882399F090E0880F991FFC01EA57FF4F50
:10013000A591B491FC01E458FF4F859194918FB73C
:10014000F894EC91E22BEC938FBF0895AF92BF929D
:10015000CF92DF92EF92FF920F931F93CF93DF9393
:100160006C017B018B01040F151FEB015E01AE18C2
:10017000BF08C017D10759F06991D601ED91FC91E4
:100180000190F081E02DC6010995892B79F7C50111
:10019000DF91CF911F910F91FF90EF90DF90CF9063
:1001A000BF90AF900895FC01538D448D252F30E012
:1001B000842F90E0821B930B541710F0CF96089574
:1001C00001970895FC01918D828D981761F0A28DA1
:1001D000AE0FBF2FB11D5D968C91928D9F5F9F7367
:1001E000928F90E008958FEF9FEF0895FC01918D1D
:1001F000828D981731F0828DE80FF11D858D90E08A
:1002000008958FEF9FEF0895FC01918D228D892F26
:1002100090E0805C9F4F821B91098F73992708950E
:1002200083E391E00E94040121E0892B09F420E09E
:10023000822F089580E090E0892B29F00E94100120
:1002400081110C9400000895FC01A48DA80FB92F12
:10025000B11DA35ABF4F2C91848D90E001968F73EE
:100260009927848FA689B7892C93A089B1898C910D
:10027000837080648C93938D848D981306C002885C
:10028000F389E02D80818F7D80830895EF92FF9226
:100290000F931F93CF93DF93EC0181E0888F9B8DA9
:1002A0008C8D98131AC0E889F989808185FF15C063
:1002B0009FB7F894EE89FF896083E889F989808186
:1002C0008370806480839FBF81E090E0DF91CF9155
:1002D0001F910F91FF90EF900895F62E0B8D10E077
:1002E0000F5F1F4F0F731127E02E8C8D8E110CC0E6
:1002F0000FB607FCFACFE889F989808185FFF5CF31
:10030000CE010E942401F1CFEB8DEC0FFD2FF11DEA
:10031000E35AFF4FF0829FB7F8940B8FEA89FB896D
:1003200080818062CFCFCF93DF93EC01888D8823CB
:10033000B9F0AA89BB89E889F9898C9185FD03C048
:10034000808186FD0DC00FB607FCF7CF8C9185FF2D
:10035000F2CF808185FFEDCFCE010E942401E9CF4D
:10036000DF91CF91089590E0FC01E859FF4F24916F
:10037000FC01EC55FF4F3491FC01E057FF4FE49135
:10038000EE23C9F0222339F0233001F1A8F4213003
:1003900019F1223029F1F0E0EE0FFF1FE458FF4F72
:1003A000A591B4918FB7F894EC91611126C0309566
:1003B0003E233C938FBF08952730A9F02830C9F021
:1003C000243049F7809180008F7D03C080918000A8
:1003D0008F7780938000DFCF84B58F7784BDDBCFAC
:1003E00084B58F7DFBCF8091B0008F778093B00074
:1003F000D2CF8091B0008F7DF9CF3E2BDACF8E50D7
:10040000806480937C0080917A00806480937A007D
:1004100080917A0086FDFCCF8091780090917900E0
:1004200008953FB7F8948091270190912801A091F9
:100430002901B0912A0126B5A89B05C02F3F19F0CC
:100440000196A11DB11D3FBFBA2FA92F982F882754
:10045000BC01CD01620F711D811D911D42E0660F2F
:10046000771F881F991F4A95D1F70895FC010190C5
:100470000020E9F73197AF01481B590BBC0183E31A
:1004800091E00C94A6008F929F92AF92BF920F932F
:100490001F93CF93DF93CDB7DEB7A1970FB6F89434
:1004A000DEBF0FBECDBF19A2423008F44AE08E0174
:1004B0000F5D1F4F842E912CB12CA12CA50194010E
:1004C0000E948E07E62FB901CA01EA30F4F4E05D1C
:1004D000D801EE938D01232B242B252B79F790E067
:1004E00080E0109719F0CD010E943602A1960FB658
:1004F000F894DEBF0FBECDBFDF91CF911F910F915A
:10050000BF90AF909F908F900895E95CE1CF1F92CC
:100510000F920FB60F9211242F933F934F935F9337
:100520006F937F938F939F93AF93BF93EF93FF93BB
:1005300083E391E00E942401FF91EF91BF91AF917D
:100540009F918F917F916F915F914F913F912F91EB
:100550000F900FBE0F901F9018951F920F920FB61D
:100560000F9211242F938F939F93EF93FF93E0911A
:100570004301F09144018081E0914901F0914A01E9
:1005800082FD1BC0908180914C018F5F8F73209101
:100590004D01821741F0E0914C01F0E0ED5CFE4F1F
:1005A000958F80934C01FF91EF919F918F912F91A7
:1005B0000F900FBE0F901F9018958081F4CF1F925F
:1005C0000F920FB60F9211242F933F938F939F9307
:1005D000AF93BF938091230190912401A0912501B5
:1005E000B09126013091220123E0230F2D3758F5D9
:1005F0000196A11DB11D20932201809323019093A8
:100600002401A0932501B0932601809127019091A8
:100610002801A0912901B0912A010196A11DB11DC7
:100620008093270190932801A0932901B0932A0178
:10063000BF91AF919F918F913F912F910F900FBEDE
:100640000F901F90189526E8230F0296A11DB11D4B
:10065000D2CF789484B5826084BD84B5816084BD36
:1006600085B5826085BD85B5816085BD80916E0050
:10067000816080936E001092810080918100826081
:1006800080938100809181008160809381008091BE
:1006900080008160809380008091B10084608093AD
:1006A000B1008091B00081608093B00080917A00A9
:1006B000846080937A0080917A00826080937A00CF
:1006C00080917A00816080937A0080917A008068BE
:1006D00080937A001092C10088E00E94870089E030
:1006E0000E9487008AE00E9487008BE00E948700BA
:1006F000E0914301F091440182E08083E0913F0169
:10070000F09140011082E0914101F09142018FECA3
:10071000808310924B01E0914701F091480186E0FF
:100720008083E0914501F091460180818061808362
:10073000E0914501F0914601808188608083E091DD
:100740004501F0914601808180688083E0914501F8
:10075000F091460180818F7D8083C0E0D0E08EE003
:100760000E94FF01811524E0920714F08FEF93E0BF
:1007700097FF02C090E080E0BC01990F880B990BB5
:100780000E94670620E030EC4FE754E40E94C40565
:1007900020E030E0A9010E9453056B017C01C0926A
:1007A0002F01D0923001E0923101F09232018FE0BE
:1007B0000E94FF01811524E0920714F08FEF93E06F
:1007C00097FF02C090E080E0BC01990F880B990B65
:1007D0000E94670620E030EC4FE754E40E94C40515
:1007E00020E030E0A9010E94530560932B01709333
:1007F0002C0180932D0190932E01A7019601C70132
:10080000B6010E948907882309F483C082E191E040
:100810000E9436028EE191E00E943602C0902F01C4
:10082000D0903001E0903101F09032012CEE31E5B2
:1008300048E35EE3C701B6010E94BF0561E087FDA2
:10084000FAC02EEA37E441E65EE3C701B6010E9432
:10085000170760E018160CF0EEC088E00E94B301A4
:1008600061E089E00E94B301C0902B01D0902C017F
:10087000E0902D01F0902E012CE53FE842EC5EE384
:10088000C701B6010E94BF0561E087FDD9C02EE314
:100890003AE047ED5EE3C701B6010E94170760E04A
:1008A00018160CF0CDC08AE00E94B30161E08BE025
:1008B0000E94B3010E9411024B015C018AEFC82E15
:1008C000D12CE12CF12C0E941102681979098A09B6
:1008D0009B09683E734081059105A8F381E0C81A21
:1008E000D108E108F10828EE820E23E0921EA11C37
:1008F000B11CC114D104E104F10429F7209709F4D3
:100900002ECF0E941001882309F429CF0E940000F5
:1009100026CF46015701E894B7F82FEF3FEF4FE796
:100920005FE7C501B4010E94890781110DC02FEF57
:100930003FEF4FE75FE7C501B4010E94BF051816FE
:100940001CF486E191E064CF2FEF3FEF4FE75FE4C7
:10095000C701B6010E94170718161CF48AE191E03E
:1009600057CF2FEF3FEF4FE75FECC701B6010E9473
:10097000BF0587FDF3CF20E030E0A901C701B60134
:100980000E94BF0587FF09C06DE283E391E00E94EA
:100990004601F7FAF094F7F8F0942AE037ED43EACD
:1009A0005BE3C701B6010E9453054B015C010E9445
:1009B00036066B017C010E9465069B01AC01C501F6
:1009C000B4010E9452054B015C014AE0C701B60127
:1009D0000E9443026EE283E391E00E94460120E020
:1009E00030E040E251E4C501B4010E941C074B0114
:1009F0005C010E9436066B01F12CE12C4AE0C70134
:100A0000B6010E944302C701B6010E9465069B0120
:100A1000AC01C501B4010E94520520E030E040E283
:100A200051E40E941C070E94360690E080E04AE0F4
:100A30000E944302EFCE88E00E94B30160E011CF34
:100A40008AE00E94B30160E032CFE3E3F1E0138279
:100A5000128288EE93E0A0E0B0E084839583A683C1
:100A6000B78384E091E09183808385EC90E0958763
:100A7000848784EC90E09787868780EC90E0918B68
:100A8000808B81EC90E0938B828B82EC90E0958B55
:100A9000848B86EC90E0978B868B118E128E138E52
:100AA000148E08955058BB27AA270E946A050C94FB
:100AB000DD060E94CF0638F00E94D60620F039F4F9
:100AC0009F3F19F426F40C94CC060EF4E095E7FB56
:100AD0000C94C606E92F0E94EE0658F3BA17620777
:100AE00073078407950720F079F4A6F50C94100796
:100AF0000EF4E0950B2EBA2FA02D0B01B901900139
:100B00000C01CA01A0011124FF27591B99F0593F7C
:100B100050F4503E68F11A16F040A22F232F342FC4
:100B20004427585FF3CF469537952795A795F04012
:100B30005395C9F77EF41F16BA0B620B730B840B27
:100B4000BAF09150A1F0FF0FBB1F661F771F881FDF
:100B5000C2F70EC0BA0F621F731F841F48F4879537
:100B600077956795B795F7959E3F08F0B0CF939529
:100B7000880F08F09927EE0F9795879508950E94A2
:100B8000A20608F481E008950E94D8050C94DD06C1
:100B90000E94D60658F00E94CF0640F029F45F3F2D
:100BA00029F00C94C60651110C9411070C94CC0634
:100BB0000E94EE0668F39923B1F3552391F3951B38
:100BC000550BBB27AA2762177307840738F09F5F6E
:100BD0005F4F220F331F441FAA1FA9F335D00E2EDB
:100BE0003AF0E0E832D091505040E695001CCAF748
:100BF0002BD0FE2F29D0660F771F881FBB1F26170B
:100C000037074807AB07B0E809F0BB0B802DBF01E1
:100C1000FF2793585F4F3AF09E3F510578F00C94B0
:100C2000C6060C9411075F3FE4F3983ED4F3869513
:100C300077956795B795F7959F5FC9F7880F911DD1
:100C40009695879597F90895E1E0660F771F881FBD
:100C5000BB1F621773078407BA0720F0621B730B70
:100C6000840BBA0BEE1F88F7E09508950E94F606F4
:100C700088F09F5798F0B92F9927B751B0F0E1F05D
:100C8000660F771F881F991F1AF0BA95C9F714C00D
:100C9000B13091F00E941007B1E008950C94100754
:100CA000672F782F8827B85F39F0B93FCCF3869546
:100CB00077956795B395D9F73EF4909580957095A3
:100CC00061957F4F8F4F9F4F0895E89409C097FB20
:100CD0003EF490958095709561957F4F8F4F9F4F13
:100CE0009923A9F0F92F96E9BB279395F695879557
:100CF00077956795B795F111F8CFFAF4BB0F11F41A
:100D000060FF1BC06F5F7F4F8F4F9F4F16C08823C0
:100D100011F096E911C0772321F09EE8872F762FF6
:100D200005C0662371F096E8862F70E060E02AF037
:100D30009A95660F771F881FDAF7880F9695879523
:100D400097F90895990F0008550FAA0BE0E8FEEFF8
:100D500016161706E807F907C0F012161306E4077F
:100D6000F50798F0621B730B840B950B39F40A2678
:100D700061F0232B242B252B21F408950A2609F456
:100D8000A140A6958FEF811D811D089597F99F675A
:100D900080E870E060E008959FEF80EC0895002403
:100DA0000A941616170618060906089500240A94D0
:100DB00012161306140605060895092E0394000C56
:100DC00011F4882352F0BB0F40F4BF2B11F460FFE5
:100DD00004C06F5F7F4F8F4F9F4F089557FD90580E
:100DE000440F551F59F05F3F71F04795880F97FBEF
:100DF000991F61F09F3F79F08795089512161306A9
:100E00001406551FF2CF4695F1DF08C016161706D7
:100E10001806991FF1CF869571056105089408950C
:100E2000E894BB2766277727CB0197F908950E949E
:100E3000A20608F48FEF08950E942F070C94DD0698
:100E40000E94CF0638F00E94D60620F0952311F0BC
:100E50000C94C6060C94CC0611240C9411070E9425
:100E6000EE0670F3959FC1F3950F50E0551F629FFA
:100E7000F001729FBB27F00DB11D639FAA27F00DF3
:100E8000B11DAA1F649F6627B00DA11D661F829F1A
:100E90002227B00DA11D621F739FB00DA11D621FFF
:100EA000839FA00D611D221F749F3327A00D611D1C
:100EB000231F849F600D211D822F762F6A2F1124FE
:100EC0009F5750409AF0F1F088234AF0EE0FFF1F31
:100ED000BB1F661F771F881F91505040A9F79E3F88
:100EE000510580F00C94C6060C9411075F3FE4F3A3
:100EF000983ED4F3869577956795B795F795E795DE
:100F00009F5FC1F7FE2B880F911D9695879597F9E6
:100F100008950E94A206880B990B0895A1E21A2E4B
:100F2000AA1BBB1BFD010DC0AA1FBB1FEE1FFF1F8D
:100F3000A217B307E407F50720F0A21BB30BE40BDD
:100F4000F50B661F771F881F991F1A9469F7609524
:100F50007095809590959B01AC01BD01CF010895DE
:100F6000EE0FFF1F0590F491E02D0994F894FFCF48
:100F7000000000004601A600D30093010401E20036
:100F8000F6006E616E00696E66006F7666000D0A8F
:020F900000005F
:00000001FF
