:100000000C9462000C948A000C948A000C948A0070
:100010000C948A000C948A000C948A000C948A0038
:100020000C948A000C948A000C948A000C948A0028
:100030000C948A000C948A000C948A000C948A0018
:100040000C9401030C948A000C94CF020C94A90226
:100050000C948A000C948A000C948A000C948A00F8
:100060000C948A000C948A000000000024002700F1
:100070002A0000000000250028002B0000000000DE
:1000800023002600290004040404040404040202DA
:100090000202020203030303030301020408102007
:1000A0004080010204081020010204081020000012
:1000B0000008000201000003040700000000000027
:1000C0000000860511241FBECFEFD8E0DEBFCDBFF4
:1000D00011E0A0E0B1E0E2E3F0E102C005900D9292
:1000E000A232B107D9F721E0A2E2B1E001C01D922E
:1000F000A03DB207E1F710E0C2E6D0E004C02197CE
:10010000FE010E941108C136D107C9F70E944B03B6
:100110000C9417080C940000AF92BF92CF92DF921C
:10012000EF92FF920F931F93CF93DF936C017B01AC
:100130008B01040F151FEB015E01AE18BF08C0173D
:10014000D10759F06991D601ED91FC910190F081B0
:10015000E02DC6010995892B79F7C501DF91CF9173
:100160001F910F91FF90EF90DF90CF90BF90AF90D5
:100170000895FC01538D448D252F30E0842F90E0AD
:10018000821B930B541710F0CF9608950197089592
:10019000FC01918D828D981761F0A28DAE0FBF2F5B
:1001A000B11D5D968C91928D9F5F9F73928F90E0B1
:1001B00008958FEF9FEF0895FC01918D828D981720
:1001C00031F0828DE80FF11D858D90E008958FEF5D
:1001D0009FEF0895FC01918D228D892F90E0805C26
:1001E0009F4F821B91098F739927089583E391E0B4
:1001F0000E94EA0021E0892B09F420E0822F089573
:1002000080E090E0892B29F00E94F60081110C9487
:1002100000000895FC01A48DA80FB92FB11DA35AA9
:10022000BF4F2C91848D90E001968F739927848F16
:10023000A689B7892C93A089B1898C918370806439
:100240008C93938D848D981306C00288F389E02DDA
:1002500080818F7D80830895EF92FF920F931F938B
:10026000CF93DF93EC0181E0888F9B8D8C8D981369
:100270001AC0E889F989808185FF15C09FB7F89475
:10028000EE89FF896083E889F989808183708064C1
:1002900080839FBF81E090E0DF91CF911F910F910C
:1002A000FF90EF900895F62E0B8D10E00F5F1F4F1B
:1002B0000F731127E02E8C8D8E110CC00FB607FC2A
:1002C000FACFE889F989808185FFF5CFCE010E94B8
:1002D0000A01F1CFEB8DEC0FFD2FF11DE35AFF4F1B
:1002E000F0829FB7F8940B8FEA89FB898081806246
:1002F000CFCFCF93DF93EC01888D8823B9F0AA8903
:10030000BB89E889F9898C9185FD03C0808186FDD0
:100310000DC00FB607FCF7CF8C9185FFF2CF80811F
:1003200085FFEDCFCE010E940A01E9CFDF91CF9189
:100330000895833081F028F4813099F08230A9F05B
:1003400008958730A9F08830C9F08430B1F48091E5
:1003500080008F7D03C0809180008F778093800024
:10036000089584B58F7784BD089584B58F7DFBCFC4
:100370008091B0008F778093B00008958091B00095
:100380008F7DF9CF1F93CF93DF93282F30E0F901B2
:10039000E255FF4F8491F901E656FF4FD491F901E0
:1003A000EA57FF4FC491CC23A9F0162F81110E9468
:1003B0009901EC2FF0E0EE0FFF1FEE58FF4FA591D3
:1003C000B4918FB7F894EC91111108C0D095DE2349
:1003D000DC938FBFDF91CF911F910895DE2BF8CF73
:1003E000CF93DF9390E0FC01E656FF4F24918A57AC
:1003F0009F4FFC0184918823D1F090E0880F991FD2
:10040000FC01E859FF4FA591B491FC01EE58FF4F54
:10041000C591D49161110EC09FB7F8948C91E22FD1
:10042000E0958E238C932881E223E8839FBFDF91A0
:10043000CF9108958FB7F894EC91E22BEC938FBF96
:10044000F6CF8E50806480937C0080917A00806427
:1004500080937A0080917A0086FDFCCF80917800AD
:100460009091790008953FB7F89480912701909179
:100470002801A0912901B0912A0126B5A89B05C0A9
:100480002F3F19F00196A11DB11D3FBFBA2FA92F13
:10049000982F8827BC01CD01620F711D811D911D10
:1004A00042E0660F771F881F991F4A95D1F708957C
:1004B000FC0101900020E9F73197AF01481B590B6F
:1004C000BC0183E391E00C948C008F929F92AF92D9
:1004D000BF920F931F93CF93DF93CDB7DEB7A19752
:1004E0000FB6F894DEBF0FBECDBF19A2423008F49C
:1004F0004AE08E010F5D1F4F842E912CB12CA12C50
:10050000A50194010E94EF07E62FB901CA01EA3064
:10051000F4F4E05DD801EE938D01232B242B252BE1
:1005200079F790E080E0109719F0CD010E94580211
:10053000A1960FB6F894DEBF0FBECDBFDF91CF916D
:100540001F910F91BF90AF909F908F900895E95C9D
:10055000E1CF1F920F920FB60F9211242F933F936A
:100560004F935F936F937F938F939F93AF93BF93BB
:10057000EF93FF9383E391E00E940A01FF91EF91D3
:10058000BF91AF919F918F917F916F915F914F91AB
:100590003F912F910F900FBE0F901F9018951F92B3
:1005A0000F920FB60F9211242F938F939F93EF9377
:1005B000FF93E0914301F09144018081E091490172
:1005C000F0914A0182FD1BC0908180914C018F5FA8
:1005D0008F7320914D01821741F0E0914C01F0E0C2
:1005E000ED5CFE4F958F80934C01FF91EF919F91B1
:1005F0008F912F910F900FBE0F901F9018958081B3
:10060000F4CF1F920F920FB60F9211242F933F93A6
:100610008F939F93AF93BF93809123019091240177
:10062000A0912501B09126013091220123E0230FF2
:100630002D3758F50196A11DB11D209322018093FD
:10064000230190932401A0932501B093260180916A
:10065000270190912801A0912901B0912A010196CA
:10066000A11DB11D8093270190932801A09329011A
:10067000B0932A01BF91AF919F918F913F912F919C
:100680000F900FBE0F901F90189526E8230F02962B
:10069000A11DB11DD2CF789484B5826084BD84B58C
:1006A000816084BD85B5826085BD85B5816085BD6D
:1006B00080916E00816080936E0010928100809125
:1006C00081008260809381008091810081608093AD
:1006D0008100809180008160809380008091B100D2
:1006E00084608093B1008091B00081608093B000FD
:1006F00080917A00846080937A0080917A00826091
:1007000080937A0080917A00816080937A00809152
:100710007A00806880937A001092C10061E088E0DE
:100720000E94F00161E089E00E94F00161E08AE04E
:100730000E94F00161E08BE00E94F00161E08CE03A
:100740000E94F00161E08DE00E94F00160E086E02F
:100750000E94F00160E087E00E94F001E091430117
:10076000F091440182E08083E0913F01F0914001EB
:100770001082E0914101F09142018FEC8083109250
:100780004B01E0914701F091480186E08083E091C0
:100790004501F0914601808180618083E0914501AF
:1007A000F0914601808188608083E0914501F0915D
:1007B0004601808180688083E0914501F091460187
:1007C00080818F7D808324EB822E20E0922EC0EAF0
:1007D000D0E00CE810E030E0A32E30E0B32E8EE045
:1007E0000E942102811524E0920714F08FEF93E01C
:1007F00097FF02C090E080E0BC01990F880B990B35
:100800000E94C80620E030EC4FE754E40E94250621
:1008100020E030E0A9010E94B4056B017C01C09288
:100820002F01D0923001E0923101F09232018FE03D
:100830000E9421028115E4E09E0714F08FEF93E0FF
:1008400097FF02C090E080E0BC01990F880B990BE4
:100850000E94C80620E030EC4FE754E40E942506D1
:1008600020E030E0A9010E94B40560932B01709351
:100870002C0180932D0190932E01A7019601C701B1
:10088000B6010E94EA07882309F494C082E191E04E
:100890000E9458028EE191E00E945802C0902F0100
:1008A000D0903001E0903101F09032012CEE31E532
:1008B00048E35EE3C701B6010E94200661E087FDC0
:1008C0000BC12EEA37E441E65EE3C701B6010E94A0
:1008D000780760E018160CF0FFC088E00E94C201A3
:1008E00061E089E00E94C201C0902B01D0902C01F0
:1008F000E0902D01F0902E012CE53FE842EC5EE304
:10090000C701B6010E94200661E087FDEAC02EE320
:100910003AE047ED5EE3C701B6010E94780760E068
:1009200018160CF0DEC08AE00E94C20161E08BE084
:100930000E94C201F4018491FE01E490F801F49058
:10094000F110D4C061E08CE00E94C20160E08DE053
:100950000E94C2010E9433022B013C018AEFC82E83
:10096000D12CE12CF12C0E943302641975098609FF
:100970009709683E734081059105A8F3F1E0CF1A0D
:10098000D108E108F10828EE420E23E0521E611C56
:10099000711CC114D104E104F10429F7A114B104BC
:1009A00009F41DCF0E94F600882309F418CF0E9495
:1009B000000015CF26013701E89477F82FEF3FEFBD
:1009C0004FE75FE7C301B2010E94EA0781110DC042
:1009D0002FEF3FEF4FE75FE7C301B2010E94200610
:1009E00018161CF486E191E053CF2FEF3FEF4FE74D
:1009F0005FE4C701B6010E94780718161CF48AE16B
:100A000091E046CF2FEF3FEF4FE75FECC701B60114
:100A10000E94200687FDF3CF20E030E0A901C70146
:100A2000B6010E94200687FF09C06DE283E391E0D2
:100A30000E942C01F7FAF094F7F8F0942AE037EDD1
:100A400043EA5BE3C701B6010E94B4052B013C01F8
:100A50000E9497066B017C010E94C6069B01AC01B7
:100A6000C301B2010E94B3052B013C014AE0C7015A
:100A7000B6010E9465026EE283E391E00E942C01C0
:100A800020E030E040E251E4C301B2010E947D0762
:100A90002B013C010E9497066B01F12CE12C4AE0EE
:100AA000C701B6010E946502C701B6010E94C606D1
:100AB0009B01AC01C301B2010E94B30520E030E00C
:100AC00040E251E40E947D070E94970690E080E09A
:100AD0004AE00E946502DECE88E00E94C20160E02A
:100AE00000CF8AE00E94C20160E021CF81110E9404
:100AF0009901EF2DF0E0EE0FFF1FE458FF4FA59195
:100B0000B4918C91E82209F41DCF24CFE3E3F1E006
:100B10001382128288EE93E0A0E0B0E08483958394
:100B2000A683B78384E091E09183808385EC90E095
:100B30009587848784EC90E09787868780EC90E0A7
:100B4000918B808B81EC90E0938B828B82EC90E098
:100B5000958B848B86EC90E0978B868B118E128E12
:100B6000138E148E08955058BB27AA270E94CB05D8
:100B70000C943E070E94300738F00E94370720F09F
:100B800039F49F3F19F426F40C942D070EF4E095E8
:100B9000E7FB0C942707E92F0E944F0758F3BA1779
:100BA000620773078407950720F079F4A6F50C9483
:100BB00071070EF4E0950B2EBA2FA02D0B01B90191
:100BC00090010C01CA01A0011124FF27591B99F0C3
:100BD000593F50F4503E68F11A16F040A22F232FCF
:100BE000342F4427585FF3CF469537952795A7951F
:100BF000F0405395C9F77EF41F16BA0B620B730BC6
:100C0000840BBAF09150A1F0FF0FBB1F661F771F36
:100C1000881FC2F70EC0BA0F621F731F841F48F4EB
:100C2000879577956795B795F7959E3F08F0B0CF74
:100C30009395880F08F09927EE0F9795879508955B
:100C40000E94030708F481E008950E9439060C947D
:100C50003E070E94370758F00E94300740F029F401
:100C60005F3F29F00C94270751110C9472070C94E4
:100C70002D070E944F0768F39923B1F3552391F391
:100C8000951B550BBB27AA2762177307840738F0FB
:100C90009F5F5F4F220F331F441FAA1FA9F335D058
:100CA0000E2E3AF0E0E832D091505040E695001C0C
:100CB000CAF72BD0FE2F29D0660F771F881FBB1FC6
:100CC000261737074807AB07B0E809F0BB0B802DA4
:100CD000BF01FF2793585F4F3AF09E3F510578F0D0
:100CE0000C9427070C9472075F3FE4F3983ED4F30B
:100CF000869577956795B795F7959F5FC9F7880FA4
:100D0000911D9695879597F90895E1E0660F771FF5
:100D1000881FBB1F621773078407BA0720F0621B86
:100D2000730B840BBA0BEE1F88F7E09508950E94B1
:100D3000570788F09F5798F0B92F9927B751B0F00F
:100D4000E1F0660F771F881F991F1AF0BA95C9F74F
:100D500014C0B13091F00E947107B1E008950C9475
:100D60007107672F782F8827B85F39F0B93FCCF328
:100D7000869577956795B395D9F73EF490958095CC
:100D8000709561957F4F8F4F9F4F0895E89409C0EC
:100D900097FB3EF490958095709561957F4F8F4FAE
:100DA0009F4F9923A9F0F92F96E9BB279395F695C4
:100DB000879577956795B795F111F8CFFAF4BB0F42
:100DC00011F460FF1BC06F5F7F4F8F4F9F4F16C0A6
:100DD000882311F096E911C0772321F09EE8872F30
:100DE000762F05C0662371F096E8862F70E060E0EC
:100DF0002AF09A95660F771F881FDAF7880F969565
:100E0000879597F90895990F0008550FAA0BE0E808
:100E1000FEEF16161706E807F907C0F012161306BC
:100E2000E407F50798F0621B730B840B950B39F4FC
:100E30000A2661F0232B242B252B21F408950A2662
:100E400009F4A140A6958FEF811D811D089597F9A2
:100E50009F6780E870E060E008959FEF80EC089560
:100E600000240A9416161706180609060895002489
:100E70000A9412161306140605060895092E039403
:100E8000000C11F4882352F0BB0F40F4BF2B11F477
:100E900060FF04C06F5F7F4F8F4F9F4F089557FDD6
:100EA0009058440F551F59F05F3F71F04795880FD8
:100EB00097FB991F61F09F3F79F08795089512166F
:100EC00013061406551FF2CF4695F1DF08C016161B
:100ED00017061806991FF1CF8695710561050894CC
:100EE0000895E894BB2766277727CB0197F90895E3
:100EF0000E94030708F48FEF08950E9490070C9456
:100F00003E070E94300738F00E94370720F09523F3
:100F100011F00C9427070C942D0711240C947207E0
:100F20000E944F0770F3959FC1F3950F50E0551F36
:100F3000629FF001729FBB27F00DB11D639FAA272E
:100F4000F00DB11DAA1F649F6627B00DA11D661F7D
:100F5000829F2227B00DA11D621F739FB00DA11D9E
:100F6000621F839FA00D611D221F749F3327A00D58
:100F7000611D231F849F600D211D822F762F6A2FF4
:100F800011249F5750409AF0F1F088234AF0EE0F59
:100F9000FF1FBB1F661F771F881F91505040A9F786
:100FA0009E3F510580F00C9427070C9472075F3F19
:100FB000E4F3983ED4F3869577956795B795F795C2
:100FC000E7959F5FC1F7FE2B880F911D969587953A
:100FD00097F908950E940307880B990B0895A1E2E1
:100FE0001A2EAA1BBB1BFD010DC0AA1FBB1FEE1FA3
:100FF000FF1FA217B307E407F50720F0A21BB30BEE
:10100000E40BF50B661F771F881F991F1A9469F769
:1010100060957095809590959B01AC01BD01CF01C5
:101020000895EE0FFF1F0590F491E02D0994F894B8
:02103000FFCFF0
:10103200000000002C018C00B9007901EA00C80010
:10104200DC006E616E00696E66006F7666000D0AE6
:0210520000009C
:00000001FF
