:100000000C9462000C948A000C948A000C948A0070
:100010000C948A000C948A000C948A000C948A0038
:100020000C948A000C948A000C948A000C948A0028
:100030000C948A000C948A000C948A000C948A0018
:100040000C948B050C948A000C9459050C94330580
:100050000C948A000C948A000C948A000C948A00F8
:100060000C948A000C948A000000000024002700F1
:100070002A0000000000250028002B0000000000DE
:1000800023002600290004040404040404040202DA
:100090000202020203030303030301020408102007
:1000A0004080010204081020010204081020000012
:1000B0000008000201000003040700000000000027
:1000C0000000D50511241FBECFEFD8E0DEBFCDBFA5
:1000D00012E0A0E0B1E0E8EFF3E102C005900D927C
:1000E000AC3AB107D9F723E0ACEAB2E001C01D9207
:1000F000A236B207E1F710E0C2E6D0E004C02197D3
:10010000FE010E94F409C136D107C9F70E943206E8
:100110000C94FA090C940000AF92BF92CF92DF9238
:10012000EF92FF920F931F93CF93DF936C017B01AC
:100130008B01040F151FEB015E01AE18BF08C0173D
:10014000D10759F06991D601ED91FC910190F081B0
:10015000E02DC6010995892B79F7C501DF91CF9173
:100160001F910F91FF90EF90DF90CF90BF90AF90D5
:100170000895FC01538D448D252F30E0842F90E0AD
:10018000821B930B541710F0CF9608950197089592
:10019000FC01918D828D981761F0A28DAE0FBF2F5B
:1001A000B11D5D968C91928D9F5F9F73928F90E0B1
:1001B00008958FEF9FEF0895FC01918D828D981720
:1001C00031F0828DE80FF11D858D90E008958FEF5D
:1001D0009FEF0895FC01918D228D892F90E0805C26
:1001E0009F4F821B91098F739927089585EB92E0A9
:1001F0000E94EA0021E0892B09F420E0822F089573
:1002000080E090E0892B29F00E94F60081110C9487
:1002100000000895FC01A48DA80FB92FB11DA35AA9
:10022000BF4F2C91848D90E001968F739927848F16
:10023000A689B7892C93A089B1898C918370806439
:100240008C93938D848D981306C00288F389E02DDA
:1002500080818F7D80830895EF92FF920F931F938B
:10026000CF93DF93EC0181E0888F9B8D8C8D981369
:100270001AC0E889F989808185FF15C09FB7F89475
:10028000EE89FF896083E889F989808183708064C1
:1002900080839FBF81E090E0DF91CF911F910F910C
:1002A000FF90EF900895F62E0B8D10E00F5F1F4F1B
:1002B0000F731127E02E8C8D8E110CC00FB607FC2A
:1002C000FACFE889F989808185FFF5CFCE010E94B8
:1002D0000A01F1CFEB8DEC0FFD2FF11DE35AFF4F1B
:1002E000F0829FB7F8940B8FEA89FB898081806246
:1002F000CFCFCF93DF93EC01888D8823B9F0AA8903
:10030000BB89E889F9898C9185FD03C0808186FDD0
:100310000DC00FB607FCF7CF8C9185FFF2CF80811F
:1003200085FFEDCFCE010E940A01E9CFDF91CF9189
:100330000895833081F028F4813099F08230A9F05B
:1003400008958730A9F08830C9F08430B1F48091E5
:1003500080008F7D03C0809180008F778093800024
:10036000089584B58F7784BD089584B58F7DFBCFC4
:100370008091B0008F778093B00008958091B00095
:100380008F7DF9CFCF93DF93282F30E0F901E2552D
:10039000FF4F8491F901E656FF4FD491F901EA57D6
:1003A000FF4FC491CC23A1F081110E949901EC2F41
:1003B000F0E0EE0FFF1FE458FF4FA591B491EC91D0
:1003C000ED2381E090E009F480E0DF91CF91089582
:1003D00080E090E0FACF1F93CF93DF93282F30E097
:1003E000F901E255FF4F8491F901E656FF4FD49190
:1003F000F901EA57FF4FC491CC23A9F0162F8111C0
:100400000E949901EC2FF0E0EE0FFF1FEE58FF4F16
:10041000A591B4918FB7F894EC91111108C0D095C3
:10042000DE23DC938FBFDF91CF911F910895DE2BE8
:10043000F8CFCF93DF9390E0FC01E656FF4F249175
:100440008A579F4FFC0184918823D1F090E0880F58
:10045000991FFC01E859FF4FA591B491FC01EE589A
:10046000FF4FC591D49161110EC09FB7F8948C9144
:10047000E22FE0958E238C932881E223E8839FBFAF
:10048000DF91CF9108958FB7F894EC91E22BEC9324
:100490008FBFF6CF8E50806480937C0080917A006D
:1004A000806480937A0080917A0086FDFCCF8091F1
:1004B00078009091790008953FB7F8948091B10247
:1004C0009091B202A091B302B091B40226B5A89B5C
:1004D00005C02F3F19F00196A11DB11D3FBFBA2FD6
:1004E000A92F982F8827BC01CD01620F711D811D96
:1004F000911D42E0660F771F881F991F4A95D1F71B
:1005000008958F929F92AF92BF92CF92DF92EF9217
:10051000FF924B015C010E945C026B017C010E9416
:100520005C026C197D098E099F09683E7340810544
:100530009105A8F321E0821A9108A108B10888EE7C
:10054000C80E83E0D81EE11CF11C81149104A104A3
:10055000B10429F7FF90EF90DF90CF90BF90AF905C
:100560009F908F90089586E00E94C201892B79F4B4
:1005700061E08CE00E94EB0160E08DE00E94EB0105
:100580006AEF70E080E090E00E948102ECCF60E0D2
:100590008CE00E94EB0160E08DE00C94EB01FC012B
:1005A00001900020E9F73197AF01481B590BBC01BE
:1005B00085EB92E00C948C00009711F00C94CF0224
:1005C00090E080E00895CF93DF930E94DC02EC017D
:1005D00083E191E00E94CF028C0F9D1FDF91CF91AC
:1005E00008952F923F924F925F926F927F928F92D7
:1005F0009F92AF92BF92CF92DF92EF92FF920F93B2
:100600001F93CF93DF93CDB7DEB7A4970FB6F894BF
:10061000DEBF0FBECDBF4B015C01142FAC019B01AF
:100620000E94CD098823F9F086E191E00E94CF0273
:100630008C01C801A4960FB6F894DEBF0FBECDBFE3
:10064000DF91CF911F910F91FF90EF90DF90CF90AE
:10065000BF90AF909F908F907F906F905F904F90E2
:100660003F902F90089575016401E894F7F82FEFFB
:100670003FEF4FE75FE7C701B6010E94CD09811147
:100680000DC02FEF3FEF4FE75FE7C701B6010E94B4
:10069000030818161CF48AE191E0C8CF2FEF3FEF52
:1006A0004FE75FE4C501B4010E945B0918161CF412
:1006B0008EE191E0BBCF2FEF3FEF4FE75FECC5013D
:1006C000B4010E94030887FDF3CF20E030E0A901C8
:1006D000C501B4010E940308712C612C87FF0AC078
:1006E0006DE285EB92E00E942C013C01B7FAB094D8
:1006F000B7F8B094F12C60E070E080E09FE31F1544
:1007000041F020E030E040E251E40E940808F39418
:10071000F6CFA50194010E9497074B015C010E944E
:100720007A086AA3C72ED82EE92E19A2262F372FB2
:10073000482F592F8E010F5D1F4F0BA31CA39AE06A
:10074000292E312C412C512CCA01B901A201910151
:100750000E94D209605DF80162938F012115310575
:100760004105510589F7CF010E94DC028301080F82
:10077000191FFF2009F45DCF6AA17C2D8D2D9E2DC0
:100780000E94A9089B01AC01C501B4010E94960713
:100790004B015C016EE285EB92E00E942C01080F98
:1007A000191F8AE0282E312C412C512CFA94FFEF8E
:1007B000FF1609F43ECF20E030E040E251E4C501ED
:1007C000B4010E9460094B015C010E947A089B0100
:1007D00050E040E019A2CBA0DCA0762E3AA3642E14
:1007E000E52ECA01B901A20191010E94D209605D02
:1007F000F60162936F01211531054105510589F715
:10080000CF010E94DC02080F191F672D7AA1862DE7
:100810009E2D0E94A9089B01AC01C501B4010E9454
:1008200096074B015C01C2CF4F925F926F927F920D
:100830008F929F92AF92BF92CF92DF92EF92FF92F0
:10084000CF93DF9300D000D000D0CDB7DEB72B011F
:100850003C0129833A834B835C830E94B3021E824E
:100860001D828EE00E944A02811524E0920714F056
:100870008FEF93E097FF02C090E080E0BC01990FFA
:10088000880B990B0E94AB0820E030EC4FE754E452
:100890000E94080820E030E0A9010E9497074B0160
:1008A0005C018FE00E944A02811524E0920714F057
:1008B0008FEF93E097FF02C090E080E0BC01990FBA
:1008C000880B990B0E94AB0820E030EC4FE754E412
:1008D0000E94080820E030E0A9010E9497076B0100
:1008E0007C012AE037ED43EA5CE3C301B2010E94D8
:1008F0009607A50194010E945B0918160CF044C0EC
:1009000061E088E00E94EB0160E089E00E94EB0179
:100910002AE037ED43EA5CE369817A818B819C812F
:100920000E949607A70196010E945B0918160CF019
:1009300049C061E08AE00E94EB0160E08BE00E9428
:10094000EB016AEF70E080E090E00E9481028D810F
:10095000882309F486CF2E81222309F482CF85E0F3
:100960000E94C20160E0892B09F04CC08CE00E941B
:10097000EB0161E08DE00E94EB016AEF70E080E046
:1009800090E00E948102EBCF2AE037ED43EA5CE37E
:10099000C301B2010E949707A50194010E940308B8
:1009A00060E087FF05C088E00E94EB0161E0ADCF09
:1009B00088E00E94EB0160E089E00E94EB0181E0A9
:1009C0008D83A6CF2AE037ED43EA5CE369817A8123
:1009D0008B819C810E949707A70196010E940308C2
:1009E00060E087FF05C08AE00E94EB0161E0A6CFCE
:1009F0008AE00E94EB0160E08BE00E94EB0121E0C5
:100A00002E839FCF8CE00E94EB0160E08DE00E947E
:100A1000EB0182E291E00E94CF0242E0C501B40105
:100A20000E94F10286E291E00E94CF0242E0C701FB
:100A3000B6010E94F10283E191E026960FB6F89488
:100A4000DEBF0FBECDBFDF91CF91FF90EF90DF9063
:100A5000CF90BF90AF909F908F907F906F905F905E
:100A60004F900C94CF021F920F920FB60F92112449
:100A70002F933F934F935F936F937F938F939F93A6
:100A8000AF93BF93EF93FF9385EB92E00E940A012F
:100A9000FF91EF91BF91AF919F918F917F916F9156
:100AA0005F914F913F912F910F900FBE0F901F902C
:100AB00018951F920F920FB60F9211242F938F93B8
:100AC0009F93EF93FF93E091C502F091C60280815E
:100AD000E091CB02F091CC0282FD1BC0908180910D
:100AE000CE028F5F8F732091CF02821741F0E09189
:100AF000CE02F0E0EB54FD4F958F8093CE02FF9134
:100B0000EF919F918F912F910F900FBE0F901F909B
:100B100018958081F4CF1F920F920FB60F92112477
:100B20002F933F938F939F93AF93BF938091AD0289
:100B30009091AE02A091AF02B091B0023091AC02A0
:100B400023E0230F2D3758F50196A11DB11D2093E9
:100B5000AC028093AD029093AE02A093AF02B0932B
:100B6000B0028091B1029091B202A091B302B09113
:100B7000B4020196A11DB11D8093B1029093B202FF
:100B8000A093B302B093B402BF91AF919F918F91A4
:100B90003F912F910F900FBE0F901F90189526E850
:100BA000230F0296A11DB11DD2CFE5EBF2E0138217
:100BB000128288EE93E0A0E0B0E084839583A68360
:100BC000B78385E091E09183808385EC90E0958701
:100BD000848784EC90E09787868780EC90E0918B07
:100BE000808B81EC90E0938B828B82EC90E0958BF4
:100BF000848B86EC90E0978B868B118E128E138EF1
:100C0000148E85E595E5A7EBBEE380935E03909394
:100C10005F03A0936003B093610380E090E0AAEFCC
:100C2000BEE380935A0390935B03A0935C03B0935D
:100C30005D0380E090E0A6E1BFE3809356039093CC
:100C40005703A0935803B093590380E090E0A8ECB9
:100C5000BEE38093520390935303A0935403B09345
:100C600055030895789484B5826084BD84B581600D
:100C700084BD85B5826085BD85B5816085BD809167
:100C80006E00816080936E001092810080918100DF
:100C900082608093810080918100816080938100D7
:100CA000809180008160809380008091B100846099
:100CB0008093B1008091B00081608093B0008091FA
:100CC0007A00846080937A0080917A0082608093B9
:100CD0007A0080917A00816080937A0080917A0016
:100CE000806880937A001092C10061E088E00E94E1
:100CF000190261E089E00E94190261E08AE00E9425
:100D0000190261E08BE00E94190261E08CE00E9410
:100D1000190261E08DE00E94190261E084E00E9406
:100D2000190260E085E00E94190260E086E00E94FE
:100D30001902E091C502F091C60282E08083E09141
:100D4000C102F091C2021082E091C302F091C4028C
:100D50008FEC80831092CD02E091C902F091CA021B
:100D600086E08083E091C702F091C80280818061B3
:100D70008083E091C702F091C802808188608083FF
:100D8000E091C702F091C802808180688083E09181
:100D9000C702F091C80280818F7D8083C0E0D0E0DF
:100DA00011E080910001882391F18DE291E00E9491
:100DB000DC0286E691E00E94DC028DE991E00E946F
:100DC000DC028CEA91E00E94DC0280EC91E00E945F
:100DD000DC028BEC91E00E94DC028DED91E00E9440
:100DE000DC028CEE91E00E94DC028CEF91E00E942C
:100DF000DC028DE092E00E94DC0283E292E00E943D
:100E0000DC028DE291E00E94DC021092000185EB91
:100E100092E00E94EA00892B09F472C0109300014D
:100E200085EB92E00E94C800833309F479C044F452
:100E3000813371F0823309F46EC08AE992E06DC0AB
:100E4000843309F470C08533C1F787E892E065C048
:100E50008BE392E00E94E30220915203309153030E
:100E6000409154035091550360915A0370915B0374
:100E700080915C0390915D030E94140460ED77E023
:100E800080E090E00E94810261E084E00E94EB013A
:100E900068EE73E080E090E00E94810260ED77E010
:100EA00080E090E00E9481020E94B30220915603EC
:100EB00030915703409158035091590360915E035C
:100EC00070915F0380916003909161030E9414040C
:100ED00060ED77E080E090E00E94810260E084E0D5
:100EE0000E94EB0168EE73E080E090E00E948102D6
:100EF00060ED77E080E090E00E9481020E94B30202
:100F0000209709F44ECF0E94F600882309F449CFB8
:100F10000E94000046CF8EE492E00E94E302F0CFF0
:100F200081E692E0FACF84E792E0F7CF5058BB27F2
:100F3000AA270E94AE070C9421090E94130938F0D9
:100F40000E941A0920F039F49F3F19F426F40C94FA
:100F500010090EF4E095E7FB0C940A09E92F0E94B2
:100F6000320958F3BA17620773078407950720F010
:100F700079F4A6F50C9454090EF4E0950B2EBA2FD3
:100F8000A02D0B01B90190010C01CA01A00111248F
:100F9000FF27591B99F0593F50F4503E68F11A163B
:100FA000F040A22F232F342F4427585FF3CF4695CC
:100FB00037952795A795F0405395C9F77EF41F16EE
:100FC000BA0B620B730B840BBAF09150A1F0FF0FB8
:100FD000BB1F661F771F881FC2F70EC0BA0F621FA4
:100FE000731F841F48F4879577956795B795F79594
:100FF0009E3F08F0B0CF9395880F08F09927EE0F29
:101000009795879508950E94E60808F481E0089571
:101010000E941C080C9421090E941A0958F00E9491
:10102000130940F029F45F3F29F00C940A0951118B
:101030000C9455090C9410090E94320968F3992305
:10104000B1F3552391F3951B550BBB27AA276217C4
:101050007307840738F09F5F5F4F220F331F441FD1
:10106000AA1FA9F335D00E2E3AF0E0E832D0915005
:101070005040E695001CCAF72BD0FE2F29D0660FF2
:10108000771F881FBB1F261737074807AB07B0E835
:1010900009F0BB0B802DBF01FF2793585F4F3AF03B
:1010A0009E3F510578F00C940A090C9455095F3F56
:1010B000E4F3983ED4F3869577956795B795F795C1
:1010C0009F5FC9F7880F911D9695879597F90895A9
:1010D000E1E0660F771F881FBB1F62177307840745
:1010E000BA0720F0621B730B840BBA0BEE1F88F754
:1010F000E09508950E943A0988F09F5798F0B92F1B
:101100009927B751B0F0E1F0660F771F881F991F3C
:101110001AF0BA95C9F714C0B13091F00E94540981
:10112000B1E008950C945409672F782F8827B85F91
:1011300039F0B93FCCF3869577956795B395D9F794
:101140003EF490958095709561957F4F8F4F9F4F9E
:101150000895E89409C097FB3EF4909580957095AA
:1011600061957F4F8F4F9F4F9923A9F0F92F96E9F3
:10117000BB279395F695879577956795B795F11168
:10118000F8CFFAF4BB0F11F460FF1BC06F5F7F4F05
:101190008F4F9F4F16C0882311F096E911C0772317
:1011A00021F09EE8872F762F05C0662371F096E820
:1011B000862F70E060E02AF09A95660F771F881FEF
:1011C000DAF7880F9695879597F90895990F000893
:1011D000550FAA0BE0E8FEEF16161706E807F90709
:1011E000C0F012161306E407F50798F0621B730BA4
:1011F000840B950B39F40A2661F0232B242B252B25
:1012000021F408950A2609F4A140A6958FEF811DC7
:10121000811D089597F99F6780E870E060E0089568
:101220009FEF80EC089500240A94161617061806FE
:101230000906089500240A941216130614060506DA
:101240000895092E0394000C11F4882352F0BB0F6B
:1012500040F4BF2B11F460FF04C06F5F7F4F8F4FCE
:101260009F4F089557FD9058440F551F59F05F3F09
:1012700071F04795880F97FB991F61F09F3F79F0B8
:1012800087950895121613061406551FF2CF46953A
:10129000F1DF08C0161617061806991FF1CF8695BC
:1012A0007105610508940895E894BB2766277727A0
:1012B000CB0197F908950E94E60808F48FEF08958E
:1012C0000E9473090C9421090E94130938F00E94AE
:1012D0001A0920F0952311F00C940A090C941009B6
:1012E00011240C9455090E94320970F3959FC1F3A3
:1012F000950F50E0551F629FF001729FBB27F00DC4
:10130000B11D639FAA27F00DB11DAA1F649F662718
:10131000B00DA11D661F829F2227B00DA11D621F67
:10132000739FB00DA11D621F839FA00D611D221F21
:10133000749F3327A00D611D231F849F600D211D05
:10134000822F762F6A2F11249F5750409AF0F1F088
:1013500088234AF0EE0FFF1FBB1F661F771F881FF1
:1013600091505040A9F79E3F510580F00C940A0916
:101370000C9455095F3FE4F3983ED4F38695779536
:101380006795B795F795E7959F5FC1F7FE2B880F97
:10139000911D9695879597F908950E94E608880B08
:1013A000990B0895A1E21A2EAA1BBB1BFD010DC0CB
:1013B000AA1FBB1FEE1FFF1FA217B307E407F50705
:1013C00020F0A21BB30BE40BF50B661F771F881FE1
:1013D000991F1A9469F760957095809590959B0177
:1013E000AC01BD01CF010895EE0FFF1F0590F491F0
:0813F000E02D0994F894FFCFF1
:1013F80001000000002C018C00B9007901EA00C846
:1014080000DC000D0A006E616E00696E66006F7682
:101418006600583A2000207C20593A20002D2D2DB6
:101428002D2D2D2D2D2D2D2D2D2D2D2D2D2D2D2DE4
:101438002D2D2D2D2D2D2D2D2D2D2D2D2D2D2D2DD4
:101448002D2D2D2D2D2D2D2D2D2D2D2D2D2D2D2DC4
:101458002D2D2D2D0A00526F626F20436172746525
:101468007369616E6F207061726120706F73696358
:10147800696F6E616D656E746F7320646520706549
:1014880063617320706F7220436F720A0045736343
:101498006F6C6861204163616F3A0A00303A2045F9
:1014A8006D657267656E63792053746F70200A00EA
:1014B800313A205374617274200A00323A20476F1F
:1014C80020746F204F524947494E200A00333A2072
:1014D800476F20746F20524544200A00343A204751
:1014E8006F20746F20424C5545200A00353A20473A
:1014F8006F20746F20475245454E200A00363A2027
:1015080041637469766174652053756374696F6E9D
:10151800200A00373A20446561637469766174650E
:101528002053756374696F6E200A00436F6D616E96
:10153800646F2031206163696F6E61646F00436F6F
:101548006D616E646F2032206163696F6E61646FD4
:1015580000436F6D616E646F2033206163696F6E45
:1015680061646F00436F6D616E646F203420616346
:10157800696F6E61646F00436F6D616E646F2035D3
:10158800206163696F6E61646F00436F6D616E64A3
:0C1598006F20696E76C3A16C69646F005F
:00000001FF
