:100000000C9462000C948A000C948A000C948A0070
:100010000C948A000C948A000C948A000C948A0038
:100020000C948A000C948A000C948A000C948A0028
:100030000C948A000C948A000C948A000C948A0018
:100040000C9473050C948A000C9441050C941B05C8
:100050000C948A000C948A000C948A000C948A00F8
:100060000C948A000C948A000000000024002700F1
:100070002A0000000000250028002B0000000000DE
:1000800023002600290004040404040404040202DA
:100090000202020203030303030301020408102007
:1000A0004080010204081020010204081020000012
:1000B0000008000201000003040700000000000027
:1000C0000000BD0511241FBECFEFD8E0DEBFCDBFBD
:1000D00011E0A0E0B1E0EAE0F3E102C005900D928A
:1000E000AC32B107D9F721E0ACE2B1E001C01D921A
:1000F000A23EB207E1F710E0C2E6D0E004C02197CB
:10010000FE010E947D09C136D107C9F70E941A0677
:100110000C9483090C940000AF92BF92CF92DF92AF
:10012000EF92FF920F931F93CF93DF936C017B01AC
:100130008B01040F151FEB015E01AE18BF08C0173D
:10014000D10759F06991D601ED91FC910190F081B0
:10015000E02DC6010995892B79F7C501DF91CF9173
:100160001F910F91FF90EF90DF90CF90BF90AF90D5
:100170000895FC01538D448D252F30E0842F90E0AD
:10018000821B930B541710F0CF9608950197089592
:10019000FC01918D828D981761F0A28DAE0FBF2F5B
:1001A000B11D5D968C91928D9F5F9F73928F90E0B1
:1001B00008958FEF9FEF0895FC01918D828D981720
:1001C00031F0828DE80FF11D858D90E008958FEF5D
:1001D0009FEF0895FC01918D228D892F90E0805C26
:1001E0009F4F821B91098F739927089585E391E0B2
:1001F0000E94EA0021E0892B09F420E0822F089573
:1002000080E090E0892B29F00E94F60081110C9487
:1002100000000895FC01A48DA80FB92FB11DA35AA9
:10022000BF4F2C91848D90E001968F739927848F16
:10023000A689B7892C93A089B1898C918370806439
:100240008C93938D848D981306C00288F389E02DDA
:1002500080818F7D80830895EF92FF920F931F938B
:10026000CF93DF93EC0181E0888F9B8D8C8D981369
:100270001AC0E889F989808185FF15C09FB7F89475
:10028000EE89FF896083E889F989808183708064C1
:1002900080839FBF81E090E0DF91CF911F910F910C
:1002A000FF90EF900895F62E0B8D10E00F5F1F4F1B
:1002B0000F731127E02E8C8D8E110CC00FB607FC2A
:1002C000FACFE889F989808185FFF5CFCE010E94B8
:1002D0000A01F1CFEB8DEC0FFD2FF11DE35AFF4F1B
:1002E000F0829FB7F8940B8FEA89FB898081806246
:1002F000CFCFCF93DF93EC01888D8823B9F0AA8903
:10030000BB89E889F9898C9185FD03C0808186FDD0
:100310000DC00FB607FCF7CF8C9185FFF2CF80811F
:1003200085FFEDCFCE010E940A01E9CFDF91CF9189
:100330000895833081F028F4813099F08230A9F05B
:1003400008958730A9F08830C9F08430B1F48091E5
:1003500080008F7D03C0809180008F778093800024
:10036000089584B58F7784BD089584B58F7DFBCFC4
:100370008091B0008F778093B00008958091B00095
:100380008F7DF9CFCF93DF93282F30E0F901E2552D
:10039000FF4F8491F901E656FF4FD491F901EA57D6
:1003A000FF4FC491CC23A1F081110E949901EC2F41
:1003B000F0E0EE0FFF1FE458FF4FA591B491EC91D0
:1003C000ED2381E090E009F480E0DF91CF91089582
:1003D00080E090E0FACF1F93CF93DF93282F30E097
:1003E000F901E255FF4F8491F901E656FF4FD49190
:1003F000F901EA57FF4FC491CC23A9F0162F8111C0
:100400000E949901EC2FF0E0EE0FFF1FEE58FF4F16
:10041000A591B4918FB7F894EC91111108C0D095C3
:10042000DE23DC938FBFDF91CF911F910895DE2BE8
:10043000F8CFCF93DF9390E0FC01E656FF4F249175
:100440008A579F4FFC0184918823D1F090E0880F58
:10045000991FFC01E859FF4FA591B491FC01EE589A
:10046000FF4FC591D49161110EC09FB7F8948C9144
:10047000E22FE0958E238C932881E223E8839FBFAF
:10048000DF91CF9108958FB7F894EC91E22BEC9324
:100490008FBFF6CF8E50806480937C0080917A006D
:1004A000806480937A0080917A0086FDFCCF8091F1
:1004B00078009091790008953FB7F89480913101C8
:1004C00090913201A0913301B091340126B5A89BDF
:1004D00005C02F3F19F00196A11DB11D3FBFBA2FD6
:1004E000A92F982F8827BC01CD01620F711D811D96
:1004F000911D42E0660F771F881F991F4A95D1F71B
:1005000008958F929F92AF92BF92CF92DF92EF9217
:10051000FF924B015C010E945C026B017C010E9416
:100520005C026C197D098E099F09683E7340810544
:100530009105A8F321E0821A9108A108B10888EE7C
:10054000C80E83E0D81EE11CF11C81149104A104A3
:10055000B10429F7FF90EF90DF90CF90BF90AF905C
:100560009F908F90089586E00E94C201892B79F4B4
:1005700061E08CE00E94EB0160E08DE00E94EB0105
:100580006AEF70E080E090E00E948102ECCF60E0D2
:100590008CE00E94EB0160E08DE00C94EB01FC012B
:1005A00001900020E9F73197AF01481B590BBC01BE
:1005B00085E391E00C948C008F929F92AF92BF9252
:1005C0000F931F93CF93DF93CDB7DEB7A1970FB6ED
:1005D000F894DEBF0FBECDBF19A2423008F44AE046
:1005E0008E010F5D1F4F842E912CB12CA12CA501E3
:1005F00094010E945B09E62FB901CA01EA30F4F4C4
:10060000E05DD801EE938D01232B242B252B79F768
:1006100090E080E0109719F0CD010E94CF02A196E2
:100620000FB6F894DEBF0FBECDBFDF91CF911F9103
:100630000F91BF90AF909F908F900895E95CE1CFAC
:100640004F925F926F927F928F929F92AF92BF92E2
:10065000CF92DF92EF92FF920F931F93CF936B0194
:100660007C01742EAC019B010E945609882399F0ED
:1006700082E191E0CF911F910F91FF90EF90DF9079
:10068000CF90BF90AF909F908F907F906F905F9032
:100690004F900C94CF0246015701E894B7F82FEF22
:1006A0003FEF4FE75FE7C501B4010E945609811192
:1006B0000DC02FEF3FEF4FE75FE7C501B4010E9488
:1006C0008C0718161CF486E191E0D4CF2FEF3FEF92
:1006D0004FE75FE4C701B6010E94E40818161CF456
:1006E0008AE191E0C7CF2FEF3FEF4FE75FECC70103
:1006F000B6010E948C0787FDF3CF20E030E0A9010E
:10070000C701B6010E948C0710E000E087FF0AC015
:100710006DE285E391E00E942C018C01F7FAF094E0
:10072000F7F8F094C0E060E070E080E09FE37C16B2
:1007300041F020E030E040E251E40E949107CF5FB9
:10074000F6CFA70196010E9420072B013C010E94D1
:1007500003084B015C014AE00E94DC027C01E00ED0
:10076000F11ECC23C1F1C501B4010E9432089B01E6
:10077000AC01C301B2010E941F074B015C016EE294
:1007800085E391E00E942C01E80EF91EC15018F19A
:1007900020E030E040E251E4C501B4010E94E908E4
:1007A0002B013C010E9403084B01B12CA12C4AE013
:1007B000C501B4010E94DC02E80EF91EC501B401B6
:1007C0000E9432089B01AC01C301B2010E941F07C5
:1007D0004B015C01DBCFC701CF911F910F91FF90BF
:1007E000EF90DF90CF90BF90AF909F908F907F90D1
:1007F0006F905F904F9008954F925F926F927F92AB
:100800008F929F92AF92BF92CF92DF92EF92FF9220
:10081000CF93DF9300D000D000D0CDB7DEB72B014F
:100820003C0129833A834B835C830E94B3021E827E
:100830001D828EE00E944A02811524E0920714F086
:100840008FEF93E097FF02C090E080E0BC01990F2A
:10085000880B990B0E94340820E030EC4FE754E4F9
:100860000E94910720E030E0A9010E9420074B017F
:100870005C018FE00E944A02811524E0920714F087
:100880008FEF93E097FF02C090E080E0BC01990FEA
:10089000880B990B0E94340820E030EC4FE754E4B9
:1008A0000E94910720E030E0A9010E9420076B011F
:1008B0007C012AE037ED43EA5CE3C301B2010E9408
:1008C0001F07A50194010E94E40818160CF044C00B
:1008D00061E088E00E94EB0160E089E00E94EB01AA
:1008E0002AE037ED43EA5CE369817A818B819C8160
:1008F0000E941F07A70196010E94E40818160CF039
:1009000049C061E08AE00E94EB0160E08BE00E9458
:10091000EB016AEF70E080E090E00E9481028D813F
:10092000882309F486CF2E81222309F482CF85E023
:100930000E94C20160E0892B09F04CC08CE00E944B
:10094000EB0161E08DE00E94EB016AEF70E080E076
:1009500090E00E948102EBCF2AE037ED43EA5CE3AE
:10096000C301B2010E942007A50194010E948C07D7
:1009700060E087FF05C088E00E94EB0161E0ADCF39
:1009800088E00E94EB0160E089E00E94EB0181E0D9
:100990008D83A6CF2AE037ED43EA5CE369817A8153
:1009A0008B819C810E942007A70196010E948C07E1
:1009B00060E087FF05C08AE00E94EB0161E0A6CFFE
:1009C0008AE00E94EB0160E08BE00E94EB0121E0F5
:1009D0002E839FCF8CE00E94EB0160E08DE00E94AF
:1009E000EB018EE191E00E94CF0242E0C501B4012B
:1009F0000E94200382E291E00E94CF0242E0C70100
:100A0000B6010E94200389E291E026960FB6F89481
:100A1000DEBF0FBECDBFDF91CF91FF90EF90DF9093
:100A2000CF90BF90AF909F908F907F906F905F908E
:100A30004F900C94CF021F920F920FB60F92112479
:100A40002F933F934F935F936F937F938F939F93D6
:100A5000AF93BF93EF93FF9385E391E00E940A0168
:100A6000FF91EF91BF91AF919F918F917F916F9186
:100A70005F914F913F912F910F900FBE0F901F905C
:100A800018951F920F920FB60F9211242F938F93E8
:100A90009F93EF93FF93E0914501F0914601808190
:100AA000E0914B01F0914C0182FD1BC0908180913F
:100AB0004E018F5F8F7320914F01821741F0E091BB
:100AC0004E01F0E0EB5CFE4F958F80934E01FF915D
:100AD000EF919F918F912F910F900FBE0F901F90CC
:100AE00018958081F4CF1F920F920FB60F921124A8
:100AF0002F933F938F939F93AF93BF9380912D013B
:100B000090912E01A0912F01B091300130912C01D4
:100B100023E0230F2D3758F50196A11DB11D209319
:100B20002C0180932D0190932E01A0932F01B0935F
:100B300030018091310190913201A0913301B09147
:100B400034010196A11DB11D8093310190933201B2
:100B5000A0933301B0933401BF91AF919F918F91D6
:100B60003F912F910F900FBE0F901F90189526E880
:100B7000230F0296A11DB11DD2CFE5E3F1E0138250
:100B8000128288EE93E0A0E0B0E084839583A68390
:100B9000B78384E091E09183808385EC90E0958732
:100BA000848784EC90E09787868780EC90E0918B37
:100BB000808B81EC90E0938B828B82EC90E0958B24
:100BC000848B86EC90E0978B868B118E128E138E21
:100BD000148E85E595E5A7EBBEE38093DE01909347
:100BE000DF01A093E001B093E10180E090E0AAEF83
:100BF000BEE38093DA019093DB01A093DC01B09314
:100C0000DD0180E090E0A6E1BFE38093D601909300
:100C1000D701A093D801B093D90180E090E0A8EC6F
:100C2000BEE38093D2019093D301A093D401B093FB
:100C3000D5010895789484B5826084BD84B58160BF
:100C400084BD85B5826085BD85B5816085BD809197
:100C50006E00816080936E0010928100809181000F
:100C60008260809381008091810081608093810007
:100C7000809180008160809380008091B1008460C9
:100C80008093B1008091B00081608093B00080912A
:100C90007A00846080937A0080917A0082608093E9
:100CA0007A0080917A00816080937A0080917A0046
:100CB000806880937A001092C10061E088E00E9411
:100CC000190261E089E00E94190261E08AE00E9455
:100CD000190261E08BE00E94190261E08CE00E9441
:100CE000190261E08DE00E94190261E084E00E9437
:100CF000190260E085E00E94190260E086E00E942F
:100D00001902E0914501F091460182E08083E09173
:100D10004101F09142011082E0914301F0914401C0
:100D20008FEC808310924D01E0914901F0914A01CE
:100D300086E08083E0914701F091480180818061E5
:100D40008083E0914701F091480180818860808331
:100D5000E0914701F0914801808180688083E091B3
:100D60004701F091480180818F7D8083C0E0D0E011
:100D70008EE191E00E94CF0282E291E00E94CF02D8
:100D80002091D2013091D3014091D4015091D501ED
:100D90006091DA017091DB018091DC019091DD01BD
:100DA0000E94FC0360ED77E080E090E00E94810209
:100DB00061E084E00E94EB0168EE73E080E090E087
:100DC0000E94810260ED77E080E090E00E94810265
:100DD0000E94B3022091D6013091D7014091D801F1
:100DE0005091D9016091DE017091DF018091E001A5
:100DF0009091E1010E94FC0360ED77E080E090E0DB
:100E00000E94810260E084E00E94EB0168EE73E0E2
:100E100080E090E00E94810260ED77E080E090E069
:100E20000E9481020E94B302209709F4A1CF0E9480
:100E3000F600882309F49CCF0E94000099CF5058F7
:100E4000BB27AA270E9437070C94AA080E949C0877
:100E500038F00E94A30820F039F49F3F19F426F4DB
:100E60000C9499080EF4E095E7FB0C949308E92F95
:100E70000E94BB0858F3BA176207730784079507E7
:100E800020F079F4A6F50C94DD080EF4E0950B2E15
:100E9000BA2FA02D0B01B90190010C01CA01A001CC
:100EA0001124FF27591B99F0593F50F4503E68F127
:100EB0001A16F040A22F232F342F4427585FF3CF68
:100EC000469537952795A795F0405395C9F77EF439
:100ED0001F16BA0B620B730B840BBAF09150A1F082
:100EE000FF0FBB1F661F771F881FC2F70EC0BA0F08
:100EF000621F731F841F48F4879577956795B79590
:100F0000F7959E3F08F0B0CF9395880F08F099278A
:100F1000EE0F9795879508950E946F0808F481E079
:100F200008950E94A5070C94AA080E94A30858F0EF
:100F30000E949C0840F029F45F3F29F00C9493082C
:100F400051110C94DE080C9499080E94BB0868F3B8
:100F50009923B1F3552391F3951B550BBB27AA2772
:100F600062177307840738F09F5F5F4F220F331FAC
:100F7000441FAA1FA9F335D00E2E3AF0E0E832D074
:100F800091505040E695001CCAF72BD0FE2F29D077
:100F9000660F771F881FBB1F261737074807AB0749
:100FA000B0E809F0BB0B802DBF01FF2793585F4FBE
:100FB0003AF09E3F510578F00C9493080C94DE08AB
:100FC0005F3FE4F3983ED4F3869577956795B795A0
:100FD000F7959F5FC9F7880F911D9695879597F9AB
:100FE0000895E1E0660F771F881FBB1F6217730724
:100FF0008407BA0720F0621B730B840BBA0BEE1F39
:1010000088F7E09508950E94C30888F09F5798F0EC
:10101000B92F9927B751B0F0E1F0660F771F881FFD
:10102000991F1AF0BA95C9F714C0B13091F00E9417
:10103000DD08B1E008950C94DD08672F782F88272C
:10104000B85F39F0B93FCCF3869577956795B3953E
:10105000D9F73EF490958095709561957F4F8F4FAD
:101060009F4F0895E89409C097FB3EF490958095B2
:10107000709561957F4F8F4F9F4F9923A9F0F92F5E
:1010800096E9BB279395F695879577956795B795DC
:10109000F111F8CFFAF4BB0F11F460FF1BC06F5FC2
:1010A0007F4F8F4F9F4F16C0882311F096E911C0D4
:1010B000772321F09EE8872F762F05C0662371F0F5
:1010C00096E8862F70E060E02AF09A95660F771F09
:1010D000881FDAF7880F9695879597F90895990FE5
:1010E0000008550FAA0BE0E8FEEF16161706E807F2
:1010F000F907C0F012161306E407F50798F0621B13
:10110000730B840B950B39F40A2661F0232B242BE7
:10111000252B21F408950A2609F4A140A6958FEF06
:10112000811D811D089597F99F6780E870E060E058
:1011300008959FEF80EC089500240A941616170670
:1011400018060906089500240A94121613061406B8
:1011500005060895092E0394000C11F4882352F01B
:10116000BB0F40F4BF2B11F460FF04C06F5F7F4FD3
:101170008F4F9F4F089557FD9058440F551F59F0BA
:101180005F3F71F04795880F97FB991F61F09F3F74
:1011900079F087950895121613061406551FF2CF9D
:1011A0004695F1DF08C0161617061806991FF1CFED
:1011B00086957105610508940895E894BB27662714
:1011C0007727CB0197F908950E946F0808F48FEFF5
:1011D00008950E94FC080C94AA080E949C0838F00C
:1011E0000E94A30820F0952311F00C9493080C940E
:1011F000990811240C94DE080E94BB0870F3959F97
:10120000C1F3950F50E0551F629FF001729FBB27FD
:10121000F00DB11D639FAA27F00DB11DAA1F649F99
:101220006627B00DA11D661F829F2227B00DA11D4C
:10123000621F739FB00DA11D621F839FA00D611DD2
:10124000221F749F3327A00D611D231F849F600DF3
:10125000211D822F762F6A2F11249F5750409AF01C
:10126000F1F088234AF0EE0FFF1FBB1F661F771FA8
:10127000881F91505040A9F79E3F510580F00C9473
:1012800093080C94DE085F3FE4F3983ED4F3869510
:1012900077956795B795F795E7959F5FC1F7FE2B13
:1012A000880F911D9695879597F908950E946F086C
:1012B000880B990B0895A1E21A2EAA1BBB1BFD01F6
:1012C0000DC0AA1FBB1FEE1FFF1FA217B307E40725
:1012D000F50720F0A21BB30BE40BF50B661F771F7D
:1012E000881F991F1A9469F760957095809590955D
:1012F0009B01AC01BD01CF010895EE0FFF1F0590CA
:0A130000F491E02D0994F894FFCF5A
:10130A00000000002C018C00B9007901EA00C80035
:10131A00DC006E616E00696E66006F766600583A90
:0C132A002000207C20593A20000D0A0011
:00000001FF
