:100000000C9462000C948A000C948A000C948A0070
:100010000C948A000C948A000C948A000C948A0038
:100020000C948A000C948A000C948A000C94F506B7
:100030000C948A000C948A000C948A000C948A0018
:100040000C94AB060C948A000C9479060C9453061D
:100050000C948A000C948A000C948A000C948A00F8
:100060000C948A000C948A000000000024002700F1
:100070002A0000000000250028002B0000000000DE
:1000800023002600290004040404040404040202DA
:100090000202020203030303030301020408102007
:1000A0004080010204081020010204081020000012
:1000B0000008000201000003040700000000000027
:1000C0000000250711241FBECFEFD8E0DEBFCDBF53
:1000D00013E0A0E0B1E0E2EFF8E102C005900D927C
:1000E000A03EB107D9F724E0A0EEB3E001C01D9215
:1000F000AF3AB207E1F710E0C2E6D0E004C02197C2
:10010000FE010E94710CC136D107C9F70E94A607F3
:100110000C94770C0C940000AF92BF92CF92DF92B8
:10012000EF92FF920F931F93CF93DF936C017B01AC
:100130008B01040F151FEB015E01AE18BF08C0173D
:10014000D10759F06991D601ED91FC910190F081B0
:10015000E02DC6010995892B79F7C501DF91CF9173
:100160001F910F91FF90EF90DF90CF90BF90AF90D5
:100170000895FC01538D448D252F30E0842F90E0AD
:10018000821B930B541710F0CF9608950197089592
:10019000FC01918D828D981761F0A28DAE0FBF2F5B
:1001A000B11D5D968C91928D9F5F9F73928F90E0B1
:1001B00008958FEF9FEF0895FC01918D828D981720
:1001C00031F0828DE80FF11D858D90E008958FEF5D
:1001D0009FEF0895FC01918D228D892F90E0805C26
:1001E0009F4F821B91098F739927089582EF93E0A7
:1001F0000E94EA0021E0892B09F420E0822F089573
:1002000080E090E0892B29F00E94F60081110C9487
:1002100000000895FC01A48DA80FB92FB11DA35AA9
:10022000BF4F2C91848D90E001968F739927848F16
:10023000A689B7892C93A089B1898C918370806439
:100240008C93938D848D981306C00288F389E02DDA
:1002500080818F7D80830895EF92FF920F931F938B
:10026000CF93DF93EC0181E0888F9B8D8C8D981369
:100270001AC0E889F989808185FF15C09FB7F89475
:10028000EE89FF896083E889F989808183708064C1
:1002900080839FBF81E090E0DF91CF911F910F910C
:1002A000FF90EF900895F62E0B8D10E00F5F1F4F1B
:1002B0000F731127E02E8C8D8E110CC00FB607FC2A
:1002C000FACFE889F989808185FFF5CFCE010E94B8
:1002D0000A01F1CFEB8DEC0FFD2FF11DE35AFF4F1B
:1002E000F0829FB7F8940B8FEA89FB898081806246
:1002F000CFCFCF93DF93EC01888D8823B9F0AA8903
:10030000BB89E889F9898C9185FD03C0808186FDD0
:100310000DC00FB607FCF7CF8C9185FFF2CF80811F
:1003200085FFEDCFCE010E940A01E9CFDF91CF9189
:100330000895833081F028F4813099F08230A9F05B
:1003400008958730A9F08830C9F08430B1F48091E5
:1003500080008F7D03C0809180008F778093800024
:10036000089584B58F7784BD089584B58F7DFBCFC4
:100370008091B0008F778093B00008958091B00095
:100380008F7DF9CFCF93DF93282F30E0F901E2552D
:10039000FF4F8491F901E656FF4FD491F901EA57D6
:1003A000FF4FC491CC23A1F081110E949901EC2F41
:1003B000F0E0EE0FFF1FE458FF4FA591B491EC91D0
:1003C000ED2381E090E009F480E0DF91CF91089582
:1003D00080E090E0FACF1F93CF93DF93282F30E097
:1003E000F901E255FF4F8491F901E656FF4FD49190
:1003F000F901EA57FF4FC491CC23A9F0162F8111C0
:100400000E949901EC2FF0E0EE0FFF1FEE58FF4F16
:10041000A591B4918FB7F894EC91111108C0D095C3
:10042000DE23DC938FBFDF91CF911F910895DE2BE8
:10043000F8CFCF93DF9390E0FC01E656FF4F249175
:100440008A579F4FFC0184918823D1F090E0880F58
:10045000991FFC01E859FF4FA591B491FC01EE589A
:10046000FF4FC591D49161110EC09FB7F8948C9144
:10047000E22FE0958E238C932881E223E8839FBFAF
:10048000DF91CF9108958FB7F894EC91E22BEC9324
:100490008FBFF6CF8E50806480937C0080917A006D
:1004A000806480937A0080917A0086FDFCCF8091F1
:1004B00078009091790008953FB7F8948091ED030A
:1004C0009091EE03A091EF03B091F00326B5A89BA5
:1004D00005C02F3F19F00196A11DB11D3FBFBA2FD6
:1004E000A92F982F8827BC01CD01620F711D811D96
:1004F000911D42E0660F771F881F991F4A95D1F71B
:1005000008958F929F92AF92BF92CF92DF92EF9217
:10051000FF924B015C010E945C026B017C010E9416
:100520005C026C197D098E099F09683E7340810544
:100530009105A8F321E0821A9108A108B10888EE7C
:10054000C80E83E0D81EE11CF11C81149104A104A3
:10055000B10429F7FF90EF90DF90CF90BF90AF905C
:100560009F908F9008958F929F92AF92BF92CF925B
:10057000DF92EF92FF92CF934B015C01C091F103A8
:10058000C11147C08FE00E944A02811524E0920702
:1005900014F08FEF93E097FF02C090E080E0BC0181
:1005A000990F880B990B0E94280B20E030EC4FE745
:1005B00054E40E94850A20E030E0A9010E94140A58
:1005C0006B017C01C092E403D092E503E092E60364
:1005D000F092E7032DEC3CEC4CE45DE3C501B40183
:1005E0000E94130AA70196010E94D80B1816DCF48A
:1005F00061E08AE00E94EB0160E08BE00E94EB0189
:100600006AEF70E080E090E00E948102CC2309F460
:10061000B5CFCF91FF90EF90DF90CF90BF90AF908C
:100620009F908F9008952DEC3CEC4CE45DE3C50168
:10063000B4010E94140AA70196010E94800A60E09A
:1006400087FF05C08AE00E94EB0161E0D6CF8AE017
:100650000E94EB0160E08BE00E94EB01C1E0D0CF93
:100660008F929F92AF92BF92CF92DF92EF92FF92C2
:10067000CF934B015C01C091F103C11147C08EE0E3
:100680000E944A02811524E0920714F08FEF93E054
:1006900097FF02C090E080E0BC01990F880B990B96
:1006A0000E94280B20E030EC4FE754E40E94850ABA
:1006B00020E030E0A9010E94140A6B017C01C09285
:1006C000E003D092E103E092E203F092E3032DEC29
:1006D0003CEC4CE45DE3C501B4010E94130AA701A0
:1006E00096010E94D80B1816DCF461E088E00E94A5
:1006F000EB0160E089E00E94EB016AEF70E080E0CE
:1007000090E00E948102CC2309F4B5CFCF91FF90F5
:10071000EF90DF90CF90BF90AF909F908F90089513
:100720002DEC3CEC4CE45DE3C501B4010E94140ADD
:10073000A70196010E94800A60E087FF05C088E05B
:100740000E94EB0161E0D6CF88E00E94EB0160E0FF
:1007500089E00E94EB01C1E0D0CF60E084E00E941C
:10076000EB0160E088E00E94EB0160E089E00E941C
:10077000EB0160E08AE00E94EB0160E08BE00E9408
:10078000EB0160E08CE00E94EB0160E08DE00C94F6
:10079000EB01FC0101900020E9F73197AF01481B04
:1007A000590BBC0182EF93E00C948C00009711F080
:1007B0000C94C90390E080E008958F929F92AF92CD
:1007C000BF920F931F93CF93DF93CDB7DEB7A1975F
:1007D0000FB6F894DEBF0FBECDBF19A2423008F4A9
:1007E0004AE08E010F5D1F4F842E912CB12CA12C5D
:1007F000A50194010E944F0CE62FB901CA01EA300D
:10080000D4F4E05DD801EE938D01232B242B252B0E
:1008100079F7CD010E94D603A1960FB6F894DEBFFA
:100820000FBECDBFDF91CF911F910F91BF90AF90C1
:100830009F908F900895E95CE5CFCF92DF92EF9281
:10084000FF92CF93DF936B017C016DE282EF93E027
:100850000E942C01EC0166277727CB016C197D09DA
:100860008E099F094AE00E94DD038C0F9D1FDF91D6
:10087000CF91FF90EF90DF90CF900895CF93C1E09C
:10088000C093F1030E94AD0383E191E00E94D6037F
:1008900086E291E00E94D60383E191E00E94D603B4
:1008A000C0930001CF91089582EF93E00E94EA0087
:1008B000019741F482EF93E00E94C800C09711F4C1
:1008C0000C943E04089585E00E94C20160E0892BEB
:1008D000A1F48091F103811110C08CE00E94EB0122
:1008E00061E08DE00E94EB016AEF70E080E090E053
:1008F0000E9481020E945404E6CF8CE00E94EB012A
:1009000060E08DE00C94EB0186E00E94C201892B2F
:10091000A9F48091F103811111C061E08CE00E9483
:10092000EB0160E08DE00E94EB016AEF70E080E097
:1009300090E00E9481020E945404E6CF60E08CE0C7
:100940000E94EB0160E08DE00C94EB01CF93DF930C
:100950000E94D603EC0187E391E00E94C9038C0F4B
:100960009D1FDF91CF9108954F925F926F927F927A
:100970008F929F92AF92BF92CF92DF92EF92FF92AF
:100980000F931F93CF936B017C01742EAC019B01DD
:100990000E944A0C882399F08AE391E0CF911F913D
:1009A0000F91FF90EF90DF90CF90BF90AF909F900E
:1009B0008F907F906F905F904F900C94C903460189
:1009C0005701E894B7F82FEF3FEF4FE75FE7C50116
:1009D000B4010E944A0C81110DC02FEF3FEF4FE789
:1009E0005FE7C501B4010E94800A18161CF48EE36B
:1009F00091E0D4CF2FEF3FEF4FE75FE4C701B6019F
:100A00000E94D80B18161CF482E491E0C7CF2FEF98
:100A10003FEF4FE75FECC701B6010E94800A87FDF8
:100A2000F3CF20E030E0A901C701B6010E94800A9F
:100A300010E000E087FF0AC06DE282EF93E00E94C1
:100A40002C018C01F7FAF094F7F8F094C0E060E024
:100A500070E080E09FE37C1641F020E030E040E26F
:100A600051E40E94850ACF5FF6CFA70196010E944C
:100A7000140A2B013C010E94F70A4B015C014AE079
:100A80000E94DD037C01E00EF11ECC23C1F1C50103
:100A9000B4010E94260B9B01AC01C301B2010E946C
:100AA000130A4B015C016EE282EF93E00E942C017D
:100AB000E80EF91EC15018F120E030E040E251E4A8
:100AC000C501B4010E94DD0B2B013C010E94F70A15
:100AD0004B01B12CA12C4AE0C501B4010E94DD03F9
:100AE000E80EF91EC501B4010E94260B9B01AC0162
:100AF000C301B2010E94130A4B015C01DBCFC701A5
:100B0000CF911F910F91FF90EF90DF90CF90BF900A
:100B1000AF909F908F907F906F905F904F900895CF
:100B20008EE00E944A02811524E0920714F08FEFB4
:100B300093E097FF02C090E080E0BC01990F880B22
:100B4000990B0E94280B20E030EC4FE754E40E9400
:100B5000850A20E030E0A9010E94140A6093E003B6
:100B60007093E1038093E2039093E3038FE00E948C
:100B70004A02811524E0920714F08FEF93E097FF6B
:100B800002C090E080E0BC01990F880B990B0E9495
:100B9000280B20E030EC4FE754E40E94850A20E067
:100BA00030E0A9010E94140A6093E4037093E50306
:100BB0008093E6039093E70386E491E00E94C903E3
:100BC0006091E0037091E1038091E2039091E3036F
:100BD00042E00E94B4048AE491E00E94C90360915B
:100BE000E4037091E5038091E6039091E70342E00E
:100BF0000E94B40481E591E00E94C90385E00E944F
:100C0000C201BC01990F880B990B97FF15C00E9478
:100C10001D0489E591E00E94C90386E00E94C2019B
:100C2000BC01990F880B990B97FF0AC00E941D0405
:100C300087E391E00C94C9034AE00E94DD03E9CF09
:100C40004AE00E94DD03F4CF8F929F92AF92BF9251
:100C5000CF92DF92EF92FF924B015C0169017A0122
:100C60000E948404C501B4010E943003C701B6018B
:100C70000E94B3020E9463048091F10381110AC0B3
:100C8000FF90EF90DF90CF90BF90AF909F908F90AC
:100C90000C949005FF90EF90DF90CF90BF90AF90B5
:100CA0009F908F9008951F920F920FB60F9211246C
:100CB0002F933F934F935F936F937F938F939F9364
:100CC000AF93BF93EF93FF9382EF93E00E940A01EB
:100CD000FF91EF91BF91AF919F918F917F916F9114
:100CE0005F914F913F912F910F900FBE0F901F90EA
:100CF00018951F920F920FB60F9211242F938F9376
:100D00009F93EF93FF93E0910204F091030480819D
:100D1000E0910804F091090482FD1BC0908180914C
:100D20000B048F5F8F7320910C04821741F0E091C8
:100D30000B04F0E0EE50FC4F958F80930B04FF9175
:100D4000EF919F918F912F910F900FBE0F901F9059
:100D500018958081F4CF1F920F920FB60F92112435
:100D60002F933F938F939F93AF93BF938091E9030A
:100D70009091EA03A091EB03B091EC033091E8036A
:100D800023E0230F2D3758F50196A11DB11D2093A7
:100D9000E8038093E9039093EA03A093EB03B093F5
:100DA000EC038091ED039091EE03A091EF03B091DD
:100DB000F0030196A11DB11D8093ED039093EE0306
:100DC000A093EF03B093F003BF91AF919F918F91E8
:100DD0003F912F910F900FBE0F901F90189526E80E
:100DE000230F0296A11DB11DD2CF1F920F920FB6F5
:100DF0000F9211242F933F934F935F936F937F93A1
:100E00008F939F93AF93BF93EF93FF9382EF93E002
:100E10000E94EA00019741F482EF93E00E94C8002B
:100E2000C09711F40E943E04FF91EF91BF91AF91E2
:100E30009F918F917F916F915F914F913F912F91F2
:100E40000F900FBE0F901F901895E2EFF3E0138202
:100E5000128288EE93E0A0E0B0E084839583A683BD
:100E6000B78385E091E09183808385EC90E095875E
:100E7000848784EC90E09787868780EC90E0918B64
:100E8000808B81EC90E0938B828B82EC90E0958B51
:100E9000848B86EC90E0978B868B118E128E138E4E
:100EA000148E85E595E5A7EBBEE38093AB049093A4
:100EB000AC04A093AD04B093AE0480E090E0AAEF40
:100EC000BEE38093A7049093A804A093A904B093D1
:100ED000AA0445E555E56EE17FE34093A3045093F2
:100EE000A4046093A5047093A60480939F04909338
:100EF000A004A093A104B093A20480E090E0A6E136
:100F0000BFE380939B0490939C04A0939D04B093B3
:100F10009E048093970490939804A0939904B093AF
:100F20009A048093930490939404A0939504B093AF
:100F3000960480E090E0A8ECBEE380938F04909349
:100F40009004A0939104B09392040895789484B58A
:100F5000826084BD84B5816084BD85B5826085BDB5
:100F600085B5816085BD80916E00816080936E0043
:100F70001092810080918100826080938100809135
:100F800081008160809381008091800081608093E6
:100F900080008091B10084608093B1008091B000A6
:100FA00081608093B00080917A00846080937A00A1
:100FB00080917A00826080937A0080917A008160CB
:100FC00080937A0080917A00806880937A001092F2
:100FD000C10061E088E00E94190261E089E00E949E
:100FE000190261E08AE00E94190261E08BE00E9430
:100FF000190261E08CE00E94190261E08DE00E941C
:10100000190261E084E00E94190260E085E00E941C
:10101000190260E086E00E941902E0910204F0915A
:10102000030482E08083E091FE03F091FF031082CD
:10103000E0910004F09101048FEC808310920A0487
:10104000E0910604F091070486E08083E0910404B7
:10105000F0910504808180618083E0910404F09127
:101060000504808188608083E0910404F091050488
:10107000808180688083E0910404F0910504808180
:101080008F7D8083F89410928000109281001092DE
:1010900085001092840088E09DE3909389008093FE
:1010A0008800809181008860809381008091810018
:1010B00085608093810080916F00826080936F00D3
:1010C0007894C0E0D0E011E080910001882309F419
:1010D00052C01092F1030E94AD0381E691E00E949C
:1010E000D6038AE991E00E94D60381ED91E00E9447
:1010F000D60380EE91E00E94D60384EF91E00E9437
:10110000D6038FEF91E00E94D60381E192E00E9426
:10111000D60380E292E00E94D60380E392E00E9430
:10112000D60381E492E00E94D60384E592E00E9417
:10113000D6038BE692E00E94D6038BE792E00E94F2
:10114000D6038AE892E00E94D60389E992E00E94E1
:10115000D60388EA92E00E94D60387EB92E00E94D1
:10116000D60386EC92E00E94D60381E691E00E94CD
:10117000D6031092000182EF93E00E94EA00892BCF
:1011800009F468C01092F1031093000182EF93E01C
:101190000E94C800863309F410C14CF5823309F46B
:1011A000CBC05CF4803309F447C0813309F463C0D9
:1011B0008EEC93E00E94A6044DC0843309F4E8C08D
:1011C0000CF4D1C083E293E00E94A60420918F0426
:1011D00030919004409191045091920460919F0449
:1011E0007091A0048091A1049091A204B9C08A35A5
:1011F00009F412C174F4883509F4EEC00CF0FFC094
:101200008733B1F689E493E00E94A6040E9490051A
:1012100021C0893709F4E8C08A3709F4F8C0883753
:1012200039F68CE593E00E94A60460E070E080E867
:101230009FE30E9430030EC00E94AD0383E191E062
:101240000E94D60386E291E00E94D60383E191E0FA
:101250000E94D6036AEF70E080E090E00E94810275
:10126000209709F431CF0E94F600882309F42CCF8F
:101270000E94000029CF87ED92E00E94A6042091F1
:101280008F043091900440919104509192046091A8
:101290009F047091A0048091A1049091A2040E94E7
:1012A00024068091F103811118C060ED77E080E0A1
:1012B00090E00E94810261E084E00E94EB0168EE10
:1012C00073E080E090E00E94810260ED77E080E0D2
:1012D00090E00E9481020E94840420919B0430913E
:1012E0009C0440919D0450919E046091AB047091C8
:1012F000AC048091AD049091AE040E9424068091CC
:10130000F1038111A7CF60ED77E080E090E00E94CB
:10131000810260E084E00E94EB0168EE73E080E00F
:1013200090E00E94810260ED77E080E090E00E9412
:1013300081020E9484048ECF8AEE92E00E94A6046D
:1013400020919B0430919C0440919D0450919E04F7
:101350006091AB047091AC048091AD049091AE04A7
:101360000E94240677CF8DEF92E00E94A604209180
:101370009704309198044091990450919A04609197
:10138000A7047091A8048091A9049091AA04E8CFC1
:1013900080E193E00E94A60420919304309194048C
:1013A00040919504509196046091A3047091A40417
:1013B0008091A5049091A604D3CF86E393E00E9488
:1013C000A60461E084E00E94EB0168EE73E080E037
:1013D00090E00E9481023ECF8FE693E00E94A60437
:1013E00060E070E0CB0125CF82E893E00E94A60484
:1013F00060E070E080E89FE30E94B3022BCF85E9B4
:1014000093E00E94A60460E070E0CB01F5CF88EA8B
:1014100093E00E94A6048DCF8BEB93E00E94A6047C
:101420000E94630417CF5058BB27AA270E942B0A9B
:101430000C949E0B0E94900B38F00E94970B20F0AA
:1014400039F49F3F19F426F40C948D0B0EF4E095BB
:10145000E7FB0C94870BE92F0E94AF0B58F3BA17E8
:10146000620773078407950720F079F4A6F50C94BA
:10147000D10B0EF4E0950B2EBA2FA02D0B01B90164
:1014800090010C01CA01A0011124FF27591B99F0FA
:10149000593F50F4503E68F11A16F040A22F232F06
:1014A000342F4427585FF3CF469537952795A79556
:1014B000F0405395C9F77EF41F16BA0B620B730BFD
:1014C000840BBAF09150A1F0FF0FBB1F661F771F6E
:1014D000881FC2F70EC0BA0F621F731F841F48F423
:1014E000879577956795B795F7959E3F08F0B0CFAC
:1014F0009395880F08F09927EE0F97958795089593
:101500000E94630B08F481E008950E94990A0C94EC
:101510009E0B0E94970B58F00E94900B40F029F40C
:101520005F3F29F00C94870B51110C94D20B0C9453
:101530008D0B0E94AF0B68F39923B1F3552391F300
:10154000951B550BBB27AA2762177307840738F032
:101550009F5F5F4F220F331F441FAA1FA9F335D08F
:101560000E2E3AF0E0E832D091505040E695001C43
:10157000CAF72BD0FE2F29D0660F771F881FBB1FFD
:10158000261737074807AB07B0E809F0BB0B802DDB
:10159000BF01FF2793585F4F3AF09E3F510578F007
:1015A0000C94870B0C94D20B5F3FE4F3983ED4F37A
:1015B000869577956795B795F7959F5FC9F7880FDB
:1015C000911D9695879597F90895E1E0660F771F2D
:1015D000881FBB1F621773078407BA0720F0621BBE
:1015E000730B840BBA0BEE1F88F7E09508950E94E9
:1015F000B70B88F09F5798F0B92F9927B751B0F0E3
:10160000E1F0660F771F881F991F1AF0BA95C9F786
:1016100014C0B13091F00E94D10BB1E008950C9448
:10162000D10B672F782F8827B85F39F0B93FCCF3FB
:10163000869577956795B395D9F73EF49095809503
:10164000709561957F4F8F4F9F4F0895E89409C023
:1016500097FB3EF490958095709561957F4F8F4FE5
:101660009F4F9923A9F0F92F96E9BB279395F695FB
:10167000879577956795B795F111F8CFFAF4BB0F79
:1016800011F460FF1BC06F5F7F4F8F4F9F4F16C0DD
:10169000882311F096E911C0772321F09EE8872F67
:1016A000762F05C0662371F096E8862F70E060E023
:1016B0002AF09A95660F771F881FDAF7880F96959C
:1016C000879597F90895990F0008550FAA0BE0E840
:1016D000FEEF16161706E807F907C0F012161306F4
:1016E000E407F50798F0621B730B840B950B39F434
:1016F0000A2661F0232B242B252B21F408950A269A
:1017000009F4A140A6958FEF811D811D089597F9D9
:101710009F6780E870E060E008959FEF80EC089597
:1017200000240A94161617061806090608950024C0
:101730000A9412161306140605060895092E03943A
:10174000000C11F4882352F0BB0F40F4BF2B11F4AE
:1017500060FF04C06F5F7F4F8F4F9F4F089557FD0D
:101760009058440F551F59F05F3F71F04795880F0F
:1017700097FB991F61F09F3F79F0879508951216A6
:1017800013061406551FF2CF4695F1DF08C0161652
:1017900017061806991FF1CF869571056105089403
:1017A0000895E894BB2766277727CB0197F908951A
:1017B0000E94630B08F48FEF08950E94F00B0C94C5
:1017C0009E0B0E94900B38F00E94970B20F09523FF
:1017D00011F00C94870B0C948D0B11240C94D20BEC
:1017E0000E94AF0B70F3959FC1F3950F50E0551F0A
:1017F000629FF001729FBB27F00DB11D639FAA2766
:10180000F00DB11DAA1F649F6627B00DA11D661FB4
:10181000829F2227B00DA11D621F739FB00DA11DD5
:10182000621F839FA00D611D221F749F3327A00D8F
:10183000611D231F849F600D211D822F762F6A2F2B
:1018400011249F5750409AF0F1F088234AF0EE0F90
:10185000FF1FBB1F661F771F881F91505040A9F7BD
:101860009E3F510580F00C94870B0C94D20B5F3F88
:10187000E4F3983ED4F3869577956795B795F795F9
:10188000E7959F5FC1F7FE2B880F911D9695879571
:1018900097F908950E94630B880B990B0895A1E2B4
:1018A0001A2EAA1BBB1BFD010DC0AA1FBB1FEE1FDA
:1018B000FF1FA217B307E407F50720F0A21BB30B25
:1018C000E40BF50B661F771F881F991F1A9469F7A1
:1018D00060957095809590959B01AC01BD01CF01FD
:1018E0000895EE0FFF1F0590F491E02D0994F894F0
:0218F000FFCF28
:1018F20001000000002C018C00B9007901EA00C847
:1019020000DC000A2D2D2D2D2D2D2D2D2D2D2D2DD3
:101912002D2D2D2D0A000A456D657267656E63795E
:101922002053746F700A000D0A006E616E00696EBA
:1019320066006F766600583A2000207C20593A20D3
:1019420000207C205A623A2000207C205A613A20F2
:10195200002D2D2D2D2D2D2D2D2D2D2D2D2D2D2DE2
:101962002D2D2D2D2D2D2D2D2D2D2D2D2D2D2D2DA5
:101972002D2D2D2D2D2D2D2D2D2D2D2D2D2D2D2D95
:101982002D2D2D2D2D2D2D2D0A00526F626F2043EE
:10199200617274657369616E6F207061726120702B
:1019A2006F736963696F6E616D656E746F732064C6
:1019B2006520706563617320706F7220436F720AD5
:1019C200004573636F6C6861204163616F3A0A007E
:1019D200303A20456D657267656E63792053746F86
:1019E20070200A00313A205374617274200A003266
:1019F2003A20476F20746F204F524947494E200AC0
:101A020000333A20476F20746F20524544200A0069
:101A1200343A20476F20746F20424C5545200A000B
:101A2200353A20476F20746F20475245454E200AB1
:101A320000363A2050756C73652053756374696F74
:101A42006E200A00373A205072696E74205859206D
:101A5200506F736974696F6E200A00383A206D6F97
:101A620076655A446F776E28290A00783A206D6F9E
:101A720076655828786629200A00583A206D6F76D4
:101A8200655828783029200A00793A206D6F7665EA
:101A92005928796629200A00593A206D6F766559CE
:101AA20028793029200A007A3A206D6F76655A55D6
:101AB200702829200A005A3A206D6F76655A446FC1
:101AC200776E2829200A00436F6D616E646F2031A2
:101AD200206163696F6E61646F00436F6D616E6454
:101AE2006F2032206163696F6E61646F00436F6DB6
:101AF200616E646F2033206163696F6E61646F0091
:101B0200436F6D616E646F2034206163696F6E6133
:101B1200646F00436F6D616E646F2035206163698D
:101B22006F6E61646F00436F6D616E646F2036206B
:101B32006163696F6E61646F00436F6D616E646FA4
:101B42002037206163696F6E61646F00436F6D615E
:101B52006E646F2078206163696F6E61646F004309
:101B62006F6D616E646F2058206163696F6E61648E
:101B72006F00436F6D616E646F2079206163696FDE
:101B82006E61646F00436F6D616E646F20592061F6
:101B920063696F6E61646F00436F6D616E646F2085
:101BA2007A206163696F6E61646F00436F6D616E6D
:101BB200646F205A206163696F6E61646F00436FC6
:101BC2006D616E646F20696E76C3A16C69646F008B
:00000001FF
