:100000000C9462000C948A000C948A000C948A0070
:100010000C948A000C948A000C948A000C948A0038
:100020000C948A000C948A000C948A000C94BF06ED
:100030000C948A000C948A000C948A000C948A0018
:100040000C9475060C948A000C9443060C941D06BF
:100050000C948A000C948A000C948A000C948A00F8
:100060000C948A000C948A000000000024002700F1
:100070002A0000000000250028002B0000000000DE
:1000800023002600290004040404040404040202DA
:100090000202020203030303030301020408102007
:1000A0004080010204081020010204081020000012
:1000B0000008000201000003040700000000000027
:1000C0000000020711241FBECFEFD8E0DEBFCDBF76
:1000D00013E0A0E0B1E0E6E5F8E102C005900D9282
:1000E000AC36B107D9F724E0ACE6B3E001C01D920D
:1000F000AB33B207E1F710E0C2E6D0E004C02197CD
:10010000FE010E94230CC136D107C9F70E94830764
:100110000C94290C0C940000AF92BF92CF92DF9206
:10012000EF92FF920F931F93CF93DF936C017B01AC
:100130008B01040F151FEB015E01AE18BF08C0173D
:10014000D10759F06991D601ED91FC910190F081B0
:10015000E02DC6010995892B79F7C501DF91CF9173
:100160001F910F91FF90EF90DF90CF90BF90AF90D5
:100170000895FC01538D448D252F30E0842F90E0AD
:10018000821B930B541710F0CF9608950197089592
:10019000FC01918D828D981761F0A28DAE0FBF2F5B
:1001A000B11D5D968C91928D9F5F9F73928F90E0B1
:1001B00008958FEF9FEF0895FC01918D828D981720
:1001C00031F0828DE80FF11D858D90E008958FEF5D
:1001D0009FEF0895FC01918D228D892F90E0805C26
:1001E0009F4F821B91098F73992708958EE793E0A3
:1001F0000E94EA0021E0892B09F420E0822F089573
:1002000080E090E0892B29F00E94F60081110C9487
:1002100000000895FC01A48DA80FB92FB11DA35AA9
:10022000BF4F2C91848D90E001968F739927848F16
:10023000A689B7892C93A089B1898C918370806439
:100240008C93938D848D981306C00288F389E02DDA
:1002500080818F7D80830895EF92FF920F931F938B
:10026000CF93DF93EC0181E0888F9B8D8C8D981369
:100270001AC0E889F989808185FF15C09FB7F89475
:10028000EE89FF896083E889F989808183708064C1
:1002900080839FBF81E090E0DF91CF911F910F910C
:1002A000FF90EF900895F62E0B8D10E00F5F1F4F1B
:1002B0000F731127E02E8C8D8E110CC00FB607FC2A
:1002C000FACFE889F989808185FFF5CFCE010E94B8
:1002D0000A01F1CFEB8DEC0FFD2FF11DE35AFF4F1B
:1002E000F0829FB7F8940B8FEA89FB898081806246
:1002F000CFCFCF93DF93EC01888D8823B9F0AA8903
:10030000BB89E889F9898C9185FD03C0808186FDD0
:100310000DC00FB607FCF7CF8C9185FFF2CF80811F
:1003200085FFEDCFCE010E940A01E9CFDF91CF9189
:100330000895833081F028F4813099F08230A9F05B
:1003400008958730A9F08830C9F08430B1F48091E5
:1003500080008F7D03C0809180008F778093800024
:10036000089584B58F7784BD089584B58F7DFBCFC4
:100370008091B0008F778093B00008958091B00095
:100380008F7DF9CFCF93DF93282F30E0F901E2552D
:10039000FF4F8491F901E656FF4FD491F901EA57D6
:1003A000FF4FC491CC23A1F081110E949901EC2F41
:1003B000F0E0EE0FFF1FE458FF4FA591B491EC91D0
:1003C000ED2381E090E009F480E0DF91CF91089582
:1003D00080E090E0FACF1F93CF93DF93282F30E097
:1003E000F901E255FF4F8491F901E656FF4FD49190
:1003F000F901EA57FF4FC491CC23A9F0162F8111C0
:100400000E949901EC2FF0E0EE0FFF1FEE58FF4F16
:10041000A591B4918FB7F894EC91111108C0D095C3
:10042000DE23DC938FBFDF91CF911F910895DE2BE8
:10043000F8CFCF93DF9390E0FC01E656FF4F249175
:100440008A579F4FFC0184918823D1F090E0880F58
:10045000991FFC01E859FF4FA591B491FC01EE589A
:10046000FF4FC591D49161110EC09FB7F8948C9144
:10047000E22FE0958E238C932881E223E8839FBFAF
:10048000DF91CF9108958FB7F894EC91E22BEC9324
:100490008FBFF6CF8E50806480937C0080917A006D
:1004A000806480937A0080917A0086FDFCCF8091F1
:1004B00078009091790008953FB7F894809179037E
:1004C00090917A03A0917B03B0917C0326B5A89B01
:1004D00005C02F3F19F00196A11DB11D3FBFBA2FD6
:1004E000A92F982F8827BC01CD01620F711D811D96
:1004F000911D42E0660F771F881F991F4A95D1F71B
:1005000008958F929F92AF92BF92CF92DF92EF9217
:10051000FF924B015C010E945C026B017C010E9416
:100520005C026C197D098E099F09683E7340810544
:100530009105A8F321E0821A9108A108B10888EE7C
:10054000C80E83E0D81EE11CF11C81149104A104A3
:10055000B10429F7FF90EF90DF90CF90BF90AF905C
:100560009F908F90089586E00E94C201892B99F494
:1005700080917D0381110FC061E08CE00E94EB014E
:1005800060E08DE00E94EB016AEF70E080E090E0B7
:100590000E948102E8CF60E08CE00E94EB0160E005
:1005A0008DE00C94EB0160E084E00E94EB0160E0E0
:1005B00088E00E94EB0160E089E00E94EB0160E0CE
:1005C0008AE00E94EB0160E08BE00E94EB0160E0BA
:1005D0008CE00E94EB0160E08DE00C94EB01FC01EB
:1005E00001900020E9F73197AF01481B590BBC017E
:1005F0008EE793E00C948C00009711F00C94EF02BE
:1006000090E080E008958F929F92AF92BF920F93F7
:100610001F93CF93DF93CDB7DEB7A1970FB6F894B2
:10062000DEBF0FBECDBF19A2423008F44AE08E01F2
:100630000F5D1F4F842E912CB12CA12CA50194018C
:100640000E94010CE62FB901CA01EA30D4F4E05D42
:10065000D801EE938D01232B242B252B79F7CD0187
:100660000E94FC02A1960FB6F894DEBF0FBECDBF6C
:10067000DF91CF911F910F91BF90AF909F908F907E
:100680000895E95CE5CFCF92DF92EF92FF92CF938E
:10069000DF936B017C016DE28EE793E00E942C01F9
:1006A000EC0166277727CB016C197D098E099F091C
:1006B0004AE00E9403038C0F9D1FDF91CF91FF90B2
:1006C000EF90DF90CF900895CF93DF930E94FC02CC
:1006D000EC0183E191E00E94EF028C0F9D1FDF91FE
:1006E000CF9108954F925F926F927F928F929F92D7
:1006F000AF92BF92CF92DF92EF92FF920F931F9330
:10070000CF936B017C01742EAC019B010E94FC0B0A
:10071000882399F086E191E0CF911F910F91FF908E
:10072000EF90DF90CF90BF90AF909F908F907F9091
:100730006F905F904F900C94EF0246015701E89440
:10074000B7F82FEF3FEF4FE75FE7C501B4010E9415
:10075000FC0B81110DC02FEF3FEF4FE75FE7C501A5
:10076000B4010E94320A18161CF48AE191E0D4CF39
:100770002FEF3FEF4FE75FE4C701B6010E948A0BFE
:1007800018161CF48EE191E0C7CF2FEF3FEF4FE733
:100790005FECC701B6010E94320A87FDF3CF20E06B
:1007A00030E0A901C701B6010E94320A10E000E062
:1007B00087FF0AC06DE28EE793E00E942C018C0156
:1007C000F7FAF094F7F8F094C0E060E070E080E0B1
:1007D0009FE37C1641F020E030E040E251E40E94CB
:1007E000370ACF5FF6CFA70196010E94C6092B01F9
:1007F0003C010E94A90A4B015C014AE00E940303EC
:100800007C01E00EF11ECC23C1F1C501B4010E94B0
:10081000D80A9B01AC01C301B2010E94C5094B017A
:100820005C016EE28EE793E00E942C01E80EF91E57
:10083000C15018F120E030E040E251E4C501B401BC
:100840000E948F0B2B013C010E94A90A4B01B12C85
:10085000A12C4AE0C501B4010E940303E80EF91E71
:10086000C501B4010E94D80A9B01AC01C301B201C9
:100870000E94C5094B015C01DBCFC701CF911F91DD
:100880000F91FF90EF90DF90CF90BF90AF909F902F
:100890008F907F906F905F904F9008958EE00E94B0
:1008A0004A02811524E0920714F08FEF93E097FF3E
:1008B00002C090E080E0BC01990F880B990B0E9468
:1008C000DA0A20E030EC4FE754E40E94370A20E0D7
:1008D00030E0A9010E94C609609370037093710310
:1008E00080937203909373038FE00E944A028115F4
:1008F00024E0920714F08FEF93E097FF02C090E09E
:1009000080E0BC01990F880B990B0E94DA0A20E065
:1009100030EC4FE754E40E94370A20E030E0A901B0
:100920000E94C60960936C0370936D0380936E03FD
:1009300090936F0382E291E00E94EF026091700356
:1009400070917103809172039091730342E00E9451
:10095000720386E291E00E94EF0260916C03709155
:100960006D0380916E0390916F0342E00E947203C9
:100970008DE291E00E94EF0285E00E94C201BC017D
:10098000990F880B990B97FF15C00E94430385E3CD
:1009900091E00E94EF0286E00E94C201BC01990F23
:1009A000880B990B97FF0AC00E94430383E191E0F3
:1009B0000C94EF024AE00E940303E9CF4AE00E9450
:1009C0000303F4CF4F925F926F927F928F929F9228
:1009D000AF92BF92CF92DF92EF92FF92CF93DF93CD
:1009E00000D000D000D0CDB7DEB72B013C01298369
:1009F0003A834B835C830E94B3021D821E828091E6
:100A00007D0381118EC08EE00E944A02811524E090
:100A1000920714F08FEF93E097FF02C090E080E020
:100A2000BC01990F880B990B0E94DA0A20E030EC88
:100A30004FE754E40E94370A20E030E0A9010E9409
:100A4000C6094B015C018092700390927103A092E1
:100A50007203B09273038FE00E944A02811524E072
:100A6000920714F08FEF93E097FF02C090E080E0D0
:100A7000BC01990F880B990B0E94DA0A20E030EC38
:100A80004FE754E40E94370A20E030E0A9010E94B9
:100A9000C6096B017C01C0926C03D0926D03E09299
:100AA0006E03F0926F032AE037ED43EA5CE3C30183
:100AB000B2010E94C509A50194010E948A0B181673
:100AC0000CF068C061E088E00E94EB0160E089E022
:100AD0000E94EB012AE037ED43EA5CE369817A8109
:100AE0008B819C810E94C509A70196010E948A0BF7
:100AF00018160CF06DC061E08AE00E94EB0160E026
:100B00008BE00E94EB016AEF70E080E090E00E94D1
:100B100081028E81882309F472CF2D81222309F46A
:100B20006ECF85E00E94C20160E0892B91F4809134
:100B30007D0381110EC08CE00E94EB0161E08DE02D
:100B40000E94EB016AEF70E080E090E00E94810279
:100B5000E8CF8CE00E94EB0160E08DE00E94EB01A9
:100B600080917D03811154C026960FB6F894DEBFA4
:100B70000FBECDBFDF91CF91FF90EF90DF90CF9070
:100B8000BF90AF909F908F907F906F905F904F90AD
:100B90000C944E042AE037ED43EA5CE3C301B20152
:100BA0000E94C609A50194010E94320A60E087FFF5
:100BB00005C088E00E94EB0161E089CF88E00E94D7
:100BC000EB0160E089E00E94EB0181E08E8382CF3F
:100BD0002AE037ED43EA5CE369817A818B819C816D
:100BE0000E94C609A70196010E94320A60E087FFB1
:100BF00005C08AE00E94EB0161E082CF8AE00E949A
:100C0000EB0160E08BE00E94EB0121E02D837BCFC4
:100C100026960FB6F894DEBF0FBECDBFDF91CF9101
:100C2000FF90EF90DF90CF90BF90AF909F908F900C
:100C30007F906F905F904F9008951F920F920FB624
:100C40000F9211242F933F934F935F936F937F9352
:100C50008F939F93AF93BF93EF93FF938EE793E0B0
:100C60000E940A01FF91EF91BF91AF919F918F91E7
:100C70007F916F915F914F913F912F910F900FBE98
:100C80000F901F9018951F920F920FB60F9211247C
:100C90002F938F939F93EF93FF93E0918E03F091A7
:100CA0008F038081E0919403F091950382FD1BC036
:100CB0009081809197038F5F8F73209198038217A3
:100CC00041F0E0919703F0E0E258FC4F958F80935C
:100CD0009703FF91EF919F918F912F910F900FBEEE
:100CE0000F901F9018958081F4CF1F920F920FB62E
:100CF0000F9211242F933F938F939F93AF93BF93A2
:100D00008091750390917603A0917703B091780359
:100D10003091740323E0230F2D3758F50196A11D60
:100D2000B11D209374038093750390937603A09371
:100D30007703B09378038091790390917A03A0911F
:100D40007B03B0917C030196A11DB11D80937903B3
:100D500090937A03A0937B03B0937C03BF91AF91F0
:100D60009F918F913F912F910F900FBE0F901F90E9
:100D7000189526E8230F0296A11DB11DD2CF1F9210
:100D80000F920FB60F9211242F933F934F935F93BF
:100D90006F937F938F939F93AF93BF93CF93EF9373
:100DA000FF938EE793E00E94EA000197C9F48EE773
:100DB00093E00E94C800C09799F4C1E0C0937D03FE
:100DC0000E94D30288E792E00E94FC028BE892E046
:100DD0000E94FC0288E792E00E94FC02C09300019E
:100DE000FF91EF91CF91BF91AF919F918F917F91A3
:100DF0006F915F914F913F912F910F900FBE0F9088
:100E00001F901895EEE7F3E01382128288EE93E0CC
:100E1000A0E0B0E084839583A683B78385E091E06A
:100E20009183808385EC90E09587848784EC90E0C3
:100E30009787868780EC90E0918B808B81EC90E0A7
:100E4000938B828B82EC90E0958B848B86EC90E088
:100E5000978B868B118E128E138E148E85E595E5F9
:100E6000A7EBBEE38093370490933804A093390432
:100E7000B0933A0480E090E0AAEFBEE3809333049D
:100E800090933404A0933504B093360445E555E5BA
:100E90006EE17FE340932F0450933004609331045C
:100EA0007093320480932B0490932C04A0932D0410
:100EB000B0932E0480E090E0A6E1BFE38093270486
:100EC00090932804A0932904B0932A0480932304C8
:100ED00090932404A0932504B093260480931F04C8
:100EE00090932004A0932104B093220480E090E02A
:100EF000A8ECBEE380931B0490931C04A0931D04F4
:100F0000B0931E040895789484B5826084BD84B53E
:100F1000816084BD85B5826085BD85B5816085BDF4
:100F200080916E00816080936E00109281008091AC
:100F30008100826080938100809181008160809334
:100F40008100809180008160809380008091B10059
:100F500084608093B1008091B00081608093B00084
:100F600080917A00846080937A0080917A00826018
:100F700080937A0080917A00816080937A008091DA
:100F80007A00806880937A001092C10061E088E066
:100F90000E94190261E089E00E94190261E08AE082
:100FA0000E94190261E08BE00E94190261E08CE06E
:100FB0000E94190261E08DE00E94190261E084E064
:100FC0000E94190260E085E00E94190260E086E05C
:100FD0000E941902E0918E03F0918F0382E08083DA
:100FE000E0918A03F0918B031082E0918C03F091E1
:100FF0008D038FEC808310929603E0919203F09121
:10100000930386E08083E0919003F09191038081C7
:1010100080618083E0919003F091910380818860EA
:101020008083E0919003F0919103808180688083B8
:10103000E0919003F091910380818F7D8083F894FB
:10104000109280001092810010928500109284000E
:1010500088E09DE3909389008093880080918100CF
:1010600088608093810080918100856080938100F9
:1010700080916F00826080936F007894C0E0D0E030
:1010800011E080910001882309F442C010927D0391
:101090000E94D3028DE391E00E94FC0286E791E07A
:1010A0000E94FC028DEA91E00E94FC028CEB91E030
:1010B0000E94FC0280ED91E00E94FC028BED91E029
:1010C0000E94FC028DEE91E00E94FC028CEF91E008
:1010D0000E94FC028CE092E00E94FC028DE192E012
:1010E0000E94FC0280E392E00E94FC0287E492E00E
:1010F0000E94FC0288E592E00E94FC0289E692E0F0
:101100000E94FC028DE391E00E94FC02109200011B
:101110008EE793E00E94EA00892B09F45CC01092EC
:101120007D03109300018EE793E00E94C800853391
:1011300009F4EFC044F5823309F4BFC054F480339E
:10114000E1F1813309F458C08AE593E00E94640319
:1011500042C0833309F4C8C08433B1F785ED92E00F
:101160000E94640320911F043091200440912104C7
:101170005091220460912F047091300480913104C9
:1011800090913204AEC0883709F4E7C064F4863326
:1011900009F4D4C08733C1F68EE093E00E94640363
:1011A0000E944E0418C0893709F4E3C08A3761F6FB
:1011B00087E493E00E9464037DC00E94D30288E725
:1011C00092E00E94FC028BE892E00E94FC0288E719
:1011D00092E00E94FC026AEF70E080E090E00E94E2
:1011E0008102209709F44DCF0E94F600882309F46C
:1011F00048CF0E94000045CF8CE992E00E94640332
:1012000020911B0430911C0440911D0450911E0438
:1012100060912B0470912C0480912D0490912E04E8
:101220000E94E20480917D03811118C060ED77E097
:1012300080E090E00E94810261E084E00E94EB0186
:1012400068EE73E080E090E00E94810260ED77E05C
:1012500080E090E00E9481020E94B3022091270466
:10126000309128044091290450912A046091370458
:10127000709138048091390490913A040E94E204FC
:1012800080917D038111A7CF60ED77E080E090E051
:101290000E94810260E084E00E94EB0168EE73E04E
:1012A00080E090E00E94810260ED77E080E090E0D5
:1012B0000E9481020E94B3028ECF8FEA92E00E94C8
:1012C000640320912704309128044091290450910F
:1012D0002A04609137047091380480913904909108
:1012E0003A040E94E20477CF82EC92E00E94640309
:1012F0002091230430912404409125045091260428
:1013000060913304709134048091350490913604D7
:10131000E8CF88EE92E00E94640320911B04309194
:101320001C0440911D0450911E0460912B04709187
:101330002C0480912D0490912E04D3CF8BEF92E05A
:101340000E94640361E084E00E94EB0168EE73E0B8
:1013500080E090E00E9481023ECF81E293E00E9413
:10136000640320E030E0A90160E070E080E89FE3E2
:10137000B8CF84E393E00E94640320E030E040E8CB
:101380005FE360E070E0CB01ACCF5058BB27AA27E9
:101390000E94DD090C94500B0E94420B38F00E9411
:1013A000490B20F039F49F3F19F426F40C943F0BBD
:1013B0000EF4E095E7FB0C94390BE92F0E94610BCA
:1013C00058F3BA17620773078407950720F079F47A
:1013D000A6F50C94830B0EF4E0950B2EBA2FA02DDE
:1013E0000B01B90190010C01CA01A0011124FF27D2
:1013F000591B99F0593F50F4503E68F11A16F040CD
:10140000A22F232F342F4427585FF3CF46953795CB
:101410002795A795F0405395C9F77EF41F16BA0B90
:10142000620B730B840BBAF09150A1F0FF0FBB1F3E
:10143000661F771F881FC2F70EC0BA0F621F731F87
:10144000841F48F4879577956795B795F7959E3FE4
:1014500008F0B0CF9395880F08F09927EE0F979575
:10146000879508950E94150B08F481E008950E9465
:101470004B0A0C94500B0E94490B58F00E94420BEF
:1014800040F029F45F3F29F00C94390B51110C9472
:10149000840B0C943F0B0E94610B68F39923B1F30A
:1014A000552391F3951B550BBB27AA27621773078A
:1014B000840738F09F5F5F4F220F331F441FAA1F1E
:1014C000A9F335D00E2E3AF0E0E832D091505040DA
:1014D000E695001CCAF72BD0FE2F29D0660F771F88
:1014E000881FBB1F261737074807AB07B0E809F06E
:1014F000BB0B802DBF01FF2793585F4F3AF09E3FF3
:10150000510578F00C94390B0C94840B5F3FE4F395
:10151000983ED4F3869577956795B795F7959F5F35
:10152000C9F7880F911D9695879597F90895E1E081
:10153000660F771F881FBB1F621773078407BA07E0
:1015400020F0621B730B840BBA0BEE1F88F7E0953B
:1015500008950E94690B88F09F5798F0B92F99273A
:10156000B751B0F0E1F0660F771F881F991F1AF08E
:10157000BA95C9F714C0B13091F00E94830BB1E065
:1015800008950C94830B672F782F8827B85F39F064
:10159000B93FCCF3869577956795B395D9F73EF427
:1015A00090958095709561957F4F8F4F9F4F0895CF
:1015B000E89409C097FB3EF49095809570956195ED
:1015C0007F4F8F4F9F4F9923A9F0F92F96E9BB27A3
:1015D0009395F695879577956795B795F111F8CF1F
:1015E000FAF4BB0F11F460FF1BC06F5F7F4F8F4F8A
:1015F0009F4F16C0882311F096E911C0772321F080
:101600009EE8872F762F05C0662371F096E8862F17
:1016100070E060E02AF09A95660F771F881FDAF76E
:10162000880F9695879597F90895990F0008550F9B
:10163000AA0BE0E8FEEF16161706E807F907C0F058
:1016400012161306E407F50798F0621B730B840B60
:10165000950B39F40A2661F0232B242B252B21F43A
:1016600008950A2609F4A140A6958FEF811D811DDA
:10167000089597F99F6780E870E060E008959FEF14
:1016800080EC089500240A94161617061806090619
:10169000089500240A9412161306140605060895E8
:1016A000092E0394000C11F4882352F0BB0F40F470
:1016B000BF2B11F460FF04C06F5F7F4F8F4F9F4FB0
:1016C000089557FD9058440F551F59F05F3F71F032
:1016D0004795880F97FB991F61F09F3F79F0879599
:1016E0000895121613061406551FF2CF4695F1DF22
:1016F00008C0161617061806991FF1CF86957105B2
:10170000610508940895E894BB2766277727CB01E5
:1017100097F908950E94150B08F48FEF08950E9421
:10172000A20B0C94500B0E94420B38F00E94490B04
:1017300020F0952311F00C94390B0C943F0B1124DD
:101740000C94840B0E94610B70F3959FC1F3950F6D
:1017500050E0551F629FF001729FBB27F00DB11D35
:10176000639FAA27F00DB11DAA1F649F6627B00DC5
:10177000A11D661F829F2227B00DA11D621F739FAE
:10178000B00DA11D621F839FA00D611D221F749FBC
:101790003327A00D611D231F849F600D211D822F03
:1017A000762F6A2F11249F5750409AF0F1F088232A
:1017B0004AF0EE0FFF1FBB1F661F771F881F915057
:1017C0005040A9F79E3F510580F00C94390B0C94C2
:1017D000840B5F3FE4F3983ED4F386957795679545
:1017E000B795F795E7959F5FC1F7FE2B880F911D81
:1017F0009695879597F908950E94150B880B990B7C
:101800000895A1E21A2EAA1BBB1BFD010DC0AA1F41
:10181000BB1FEE1FFF1FA217B307E407F50720F059
:10182000A21BB30BE40BF50B661F771F881F991FD4
:101830001A9469F760957095809590959B01AC011D
:10184000BD01CF010895EE0FFF1F0590F491E02D2B
:061850000994F894FFCF9B
:1018560001000000002C018C00B9007901EA00C8E3
:1018660000DC000D0A006E616E00696E66006F7620
:101876006600583A2000207C20593A2000207C201F
:101886005A623A2000207C205A613A20002D2D2DE4
:101896002D2D2D2D2D2D2D2D2D2D2D2D2D2D2D2D72
:1018A6002D2D2D2D2D2D2D2D2D2D2D2D2D2D2D2D62
:1018B6002D2D2D2D2D2D2D2D2D2D2D2D2D2D2D2D52
:1018C6002D2D2D2D0A00526F626F204361727465B3
:1018D6007369616E6F207061726120706F736963E6
:1018E600696F6E616D656E746F73206465207065D7
:1018F60063617320706F7220436F720A00457363D1
:101906006F6C6861204163616F3A0A00303A204586
:101916006D657267656E63792053746F70200A0077
:10192600313A205374617274200A00323A20476FAC
:1019360020746F204F524947494E200A00333A20FF
:10194600476F20746F20524544200A00343A2047DE
:101956006F20746F20424C5545200A00353A2047C7
:101966006F20746F20475245454E200A00363A20B4
:1019760050756C73652053756374696F6E200A0029
:10198600373A205072696E7420585920506F736927
:1019960074696F6E200A00783A206D6F7665585923
:1019A60028312C3029200A00793A206D6F76655847
:1019B6005928302C3129200A007A3A206D6F766535
:1019C6005A55702829200A000A2D2D2D2D2D2D2D32
:1019D6002D2D2D2D2D2D2D2D2D0A000A456D6572CF
:1019E60067656E63792053746F700A00436F6D618B
:1019F6006E646F2031206163696F6E61646F0043AE
:101A06006F6D616E646F2032206163696F6E616411
:101A16006F00436F6D616E646F2033206163696F81
:101A26006E61646F00436F6D616E646F2034206178
:101A360063696F6E61646F00436F6D616E646F20E2
:101A460035206163696F6E61646F00436F6D616E0F
:101A5600646F2036206163696F6E61646F00436F47
:101A66006D616E646F2037206163696F6E61646FAC
:101A760000436F6D616E646F2078206163696F6EDD
:101A860061646F00436F6D616E646F2079206163DE
:101A9600696F6E61646F00436F6D616E646F207A6B
:101AA600206163696F6E61646F00436F6D616E6480
:0C1AB6006F20696E76C3A16C69646F003C
:00000001FF
